{
  "contractName": "zBCH",
  "abi": [
    {
      "anonymous": false,
      "inputs": [
        {
          "indexed": true,
          "internalType": "address",
          "name": "owner",
          "type": "address"
        },
        {
          "indexed": true,
          "internalType": "address",
          "name": "spender",
          "type": "address"
        },
        {
          "indexed": false,
          "internalType": "uint256",
          "name": "value",
          "type": "uint256"
        }
      ],
      "name": "Approval",
      "type": "event"
    },
    {
      "anonymous": false,
      "inputs": [
        {
          "indexed": true,
          "internalType": "address",
          "name": "previousOwner",
          "type": "address"
        },
        {
          "indexed": true,
          "internalType": "address",
          "name": "newOwner",
          "type": "address"
        }
      ],
      "name": "OwnershipTransferred",
      "type": "event"
    },
    {
      "anonymous": false,
      "inputs": [
        {
          "indexed": true,
          "internalType": "address",
          "name": "from",
          "type": "address"
        },
        {
          "indexed": true,
          "internalType": "address",
          "name": "to",
          "type": "address"
        },
        {
          "indexed": false,
          "internalType": "uint256",
          "name": "value",
          "type": "uint256"
        }
      ],
      "name": "Transfer",
      "type": "event"
    },
    {
      "constant": true,
      "inputs": [
        {
          "internalType": "address",
          "name": "owner",
          "type": "address"
        },
        {
          "internalType": "address",
          "name": "spender",
          "type": "address"
        }
      ],
      "name": "allowance",
      "outputs": [
        {
          "internalType": "uint256",
          "name": "",
          "type": "uint256"
        }
      ],
      "payable": false,
      "stateMutability": "view",
      "type": "function"
    },
    {
      "constant": false,
      "inputs": [
        {
          "internalType": "address",
          "name": "spender",
          "type": "address"
        },
        {
          "internalType": "uint256",
          "name": "amount",
          "type": "uint256"
        }
      ],
      "name": "approve",
      "outputs": [
        {
          "internalType": "bool",
          "name": "",
          "type": "bool"
        }
      ],
      "payable": false,
      "stateMutability": "nonpayable",
      "type": "function"
    },
    {
      "constant": true,
      "inputs": [
        {
          "internalType": "address",
          "name": "account",
          "type": "address"
        }
      ],
      "name": "balanceOf",
      "outputs": [
        {
          "internalType": "uint256",
          "name": "",
          "type": "uint256"
        }
      ],
      "payable": false,
      "stateMutability": "view",
      "type": "function"
    },
    {
      "constant": false,
      "inputs": [
        {
          "internalType": "address",
          "name": "_from",
          "type": "address"
        },
        {
          "internalType": "uint256",
          "name": "_amount",
          "type": "uint256"
        }
      ],
      "name": "burn",
      "outputs": [],
      "payable": false,
      "stateMutability": "nonpayable",
      "type": "function"
    },
    {
      "constant": false,
      "inputs": [],
      "name": "claimOwnership",
      "outputs": [],
      "payable": false,
      "stateMutability": "nonpayable",
      "type": "function"
    },
    {
      "constant": true,
      "inputs": [],
      "name": "decimals",
      "outputs": [
        {
          "internalType": "uint8",
          "name": "",
          "type": "uint8"
        }
      ],
      "payable": false,
      "stateMutability": "view",
      "type": "function"
    },
    {
      "constant": false,
      "inputs": [
        {
          "internalType": "address",
          "name": "spender",
          "type": "address"
        },
        {
          "internalType": "uint256",
          "name": "subtractedValue",
          "type": "uint256"
        }
      ],
      "name": "decreaseAllowance",
      "outputs": [
        {
          "internalType": "bool",
          "name": "",
          "type": "bool"
        }
      ],
      "payable": false,
      "stateMutability": "nonpayable",
      "type": "function"
    },
    {
      "constant": false,
      "inputs": [
        {
          "internalType": "address",
          "name": "spender",
          "type": "address"
        },
        {
          "internalType": "uint256",
          "name": "addedValue",
          "type": "uint256"
        }
      ],
      "name": "increaseAllowance",
      "outputs": [
        {
          "internalType": "bool",
          "name": "",
          "type": "bool"
        }
      ],
      "payable": false,
      "stateMutability": "nonpayable",
      "type": "function"
    },
    {
      "constant": true,
      "inputs": [],
      "name": "isOwner",
      "outputs": [
        {
          "internalType": "bool",
          "name": "",
          "type": "bool"
        }
      ],
      "payable": false,
      "stateMutability": "view",
      "type": "function"
    },
    {
      "constant": false,
      "inputs": [
        {
          "internalType": "address",
          "name": "_to",
          "type": "address"
        },
        {
          "internalType": "uint256",
          "name": "_amount",
          "type": "uint256"
        }
      ],
      "name": "mint",
      "outputs": [],
      "payable": false,
      "stateMutability": "nonpayable",
      "type": "function"
    },
    {
      "constant": true,
      "inputs": [],
      "name": "name",
      "outputs": [
        {
          "internalType": "string",
          "name": "",
          "type": "string"
        }
      ],
      "payable": false,
      "stateMutability": "view",
      "type": "function"
    },
    {
      "constant": true,
      "inputs": [],
      "name": "owner",
      "outputs": [
        {
          "internalType": "address",
          "name": "",
          "type": "address"
        }
      ],
      "payable": false,
      "stateMutability": "view",
      "type": "function"
    },
    {
      "constant": false,
      "inputs": [
        {
          "internalType": "address",
          "name": "_token",
          "type": "address"
        }
      ],
      "name": "recoverTokens",
      "outputs": [],
      "payable": false,
      "stateMutability": "nonpayable",
      "type": "function"
    },
    {
      "constant": false,
      "inputs": [],
      "name": "renounceOwnership",
      "outputs": [],
      "payable": false,
      "stateMutability": "nonpayable",
      "type": "function"
    },
    {
      "constant": true,
      "inputs": [],
      "name": "symbol",
      "outputs": [
        {
          "internalType": "string",
          "name": "",
          "type": "string"
        }
      ],
      "payable": false,
      "stateMutability": "view",
      "type": "function"
    },
    {
      "constant": true,
      "inputs": [],
      "name": "totalSupply",
      "outputs": [
        {
          "internalType": "uint256",
          "name": "",
          "type": "uint256"
        }
      ],
      "payable": false,
      "stateMutability": "view",
      "type": "function"
    },
    {
      "constant": false,
      "inputs": [
        {
          "internalType": "address",
          "name": "recipient",
          "type": "address"
        },
        {
          "internalType": "uint256",
          "name": "amount",
          "type": "uint256"
        }
      ],
      "name": "transfer",
      "outputs": [
        {
          "internalType": "bool",
          "name": "",
          "type": "bool"
        }
      ],
      "payable": false,
      "stateMutability": "nonpayable",
      "type": "function"
    },
    {
      "constant": false,
      "inputs": [
        {
          "internalType": "address",
          "name": "sender",
          "type": "address"
        },
        {
          "internalType": "address",
          "name": "recipient",
          "type": "address"
        },
        {
          "internalType": "uint256",
          "name": "amount",
          "type": "uint256"
        }
      ],
      "name": "transferFrom",
      "outputs": [
        {
          "internalType": "bool",
          "name": "",
          "type": "bool"
        }
      ],
      "payable": false,
      "stateMutability": "nonpayable",
      "type": "function"
    },
    {
      "constant": false,
      "inputs": [
        {
          "internalType": "address",
          "name": "newOwner",
          "type": "address"
        }
      ],
      "name": "transferOwnership",
      "outputs": [],
      "payable": false,
      "stateMutability": "nonpayable",
      "type": "function"
    }
  ],
  "bytecode": "0x600b60808181527f536869667465642042434800000000000000000000000000000000000000000060a0908152610100604052600460c09081527f7a4243480000000000000000000000000000000000000000000000000000000060e05291926008918491849184916200007691600391620000f9565b5081516200008c906004906020850190620000f9565b506005805460ff90921660ff199092169190911790555050600680546001600160a01b0319163317908190556040516001600160a01b0391909116906000907f8be0079c531659141344cd1fd0a4f28419497f9722a3daafe3b4186f6b6457e0908290a35050506200019e565b828054600181600116156101000203166002900490600052602060002090601f016020900481019282601f106200013c57805160ff19168380011785556200016c565b828001600101855582156200016c579182015b828111156200016c5782518255916020019190600101906200014f565b506200017a9291506200017e565b5090565b6200019b91905b808211156200017a576000815560010162000185565b90565b61121080620001ae6000396000f3fe608060405234801561001057600080fd5b50600436106101215760003560e01c806370a08231116100ad5780639dc29fac116100715780639dc29fac1461033b578063a457c2d714610367578063a9059cbb14610393578063dd62ed3e146103bf578063f2fde38b146103ed57610121565b806370a08231146102d9578063715018a6146102ff5780638da5cb5b146103075780638f32d59b1461032b57806395d89b411461033357610121565b806323b872dd116100f457806323b872dd14610225578063313ce5671461025b578063395093511461027957806340c10f19146102a55780634e71e0c8146102d157610121565b806306fdde0314610126578063095ea7b3146101a357806316114acd146101e357806318160ddd1461020b575b600080fd5b61012e610413565b6040805160208082528351818301528351919283929083019185019080838360005b83811015610168578181015183820152602001610150565b50505050905090810190601f1680156101955780820380516001836020036101000a031916815260200191505b509250505060405180910390f35b6101cf600480360360408110156101b957600080fd5b506001600160a01b0381351690602001356104a9565b604080519115158252519081900360200190f35b610209600480360360208110156101f957600080fd5b50356001600160a01b03166104c6565b005b610213610646565b60408051918252519081900360200190f35b6101cf6004803603606081101561023b57600080fd5b506001600160a01b0381358116916020810135909116906040013561064c565b6102636106d9565b6040805160ff9092168252519081900360200190f35b6101cf6004803603604081101561028f57600080fd5b506001600160a01b0381351690602001356106e2565b610209600480360360408110156102bb57600080fd5b506001600160a01b038135169060200135610736565b610209610787565b610213600480360360208110156102ef57600080fd5b50356001600160a01b031661084b565b610209610866565b61030f6108f3565b604080516001600160a01b039092168252519081900360200190f35b6101cf610902565b61012e610913565b6102096004803603604081101561035157600080fd5b506001600160a01b038135169060200135610974565b6101cf6004803603604081101561037d57600080fd5b506001600160a01b0381351690602001356109c1565b6101cf600480360360408110156103a957600080fd5b506001600160a01b038135169060200135610a2f565b610213600480360360408110156103d557600080fd5b506001600160a01b0381358116916020013516610a43565b6102096004803603602081101561040357600080fd5b50356001600160a01b0316610a6e565b60038054604080516020601f600260001961010060018816150201909516949094049384018190048102820181019092528281526060939092909183018282801561049f5780601f106104745761010080835404028352916020019161049f565b820191906000526020600020905b81548152906001019060200180831161048257829003601f168201915b5050505050905090565b60006104bd6104b6610ad9565b8484610add565b50600192915050565b6104ce610902565b6105095760405162461bcd60e51b81526004018080602001828103825260228152602001806110b36022913960400191505060405180910390fd5b6001600160a01b03811661054a576040513390303180156108fc02916000818181858888f19350505050158015610544573d6000803e3d6000fd5b50610643565b604080516370a0823160e01b815230600482015290516001600160a01b0383169163a9059cbb91339184916370a0823191602480820192602092909190829003018186803b15801561059b57600080fd5b505afa1580156105af573d6000803e3d6000fd5b505050506040513d60208110156105c557600080fd5b5051604080516001600160e01b031960e086901b1681526001600160a01b03909316600484015260248301919091525160448083019260209291908290030181600087803b15801561061657600080fd5b505af115801561062a573d6000803e3d6000fd5b505050506040513d602081101561064057600080fd5b50505b50565b60025490565b6000610659848484610bc9565b6106cf84610665610ad9565b6106ca856040518060600160405280602881526020016110fb602891396001600160a01b038a166000908152600160205260408120906106a3610ad9565b6001600160a01b03168152602081019190915260400160002054919063ffffffff610d2516565b610add565b5060019392505050565b60055460ff1690565b60006104bd6106ef610ad9565b846106ca8560016000610700610ad9565b6001600160a01b03908116825260208083019390935260409182016000908120918c16815292529020549063ffffffff610dbc16565b61073e610902565b6107795760405162461bcd60e51b81526004018080602001828103825260228152602001806110b36022913960400191505060405180910390fd5b6107838282610e1d565b5050565b60055461010090046001600160a01b031633146107d55760405162461bcd60e51b815260040180806020018281038252602a815260200180611144602a913960400191505060405180910390fd5b6005546006546040516101009092046001600160a01b03908116929116907f8be0079c531659141344cd1fd0a4f28419497f9722a3daafe3b4186f6b6457e090600090a360058054600680546001600160a01b0319166001600160a01b03610100840416179055610100600160a81b0319169055565b6001600160a01b031660009081526020819052604090205490565b61086e610902565b6108a95760405162461bcd60e51b81526004018080602001828103825260228152602001806110b36022913960400191505060405180910390fd5b6006546040516000916001600160a01b0316907f8be0079c531659141344cd1fd0a4f28419497f9722a3daafe3b4186f6b6457e0908390a3600680546001600160a01b0319169055565b6006546001600160a01b031690565b6006546001600160a01b0316331490565b60048054604080516020601f600260001961010060018816150201909516949094049384018190048102820181019092528281526060939092909183018282801561049f5780601f106104745761010080835404028352916020019161049f565b61097c610902565b6109b75760405162461bcd60e51b81526004018080602001828103825260228152602001806110b36022913960400191505060405180910390fd5b6107838282610f0d565b60006104bd6109ce610ad9565b846106ca856040518060600160405280602581526020016111b760259139600160006109f8610ad9565b6001600160a01b03908116825260208083019390935260409182016000908120918d1681529252902054919063ffffffff610d2516565b60006104bd610a3c610ad9565b8484610bc9565b6001600160a01b03918216600090815260016020908152604080832093909416825291909152205490565b610a76610902565b610ab15760405162461bcd60e51b81526004018080602001828103825260228152602001806110b36022913960400191505060405180910390fd5b600580546001600160a01b0390921661010002610100600160a81b0319909216919091179055565b3390565b6001600160a01b038316610b225760405162461bcd60e51b81526004018080602001828103825260248152602001806111936024913960400191505060405180910390fd5b6001600160a01b038216610b675760405162461bcd60e51b81526004018080602001828103825260228152602001806110916022913960400191505060405180910390fd5b6001600160a01b03808416600081815260016020908152604080832094871680845294825291829020859055815185815291517f8c5be1e5ebec7d5bd14f71427d1e84f3dd0314c0f7b2291e5b200ac8c7c3b9259281900390910190a3505050565b6001600160a01b038316610c0e5760405162461bcd60e51b815260040180806020018281038252602581526020018061116e6025913960400191505060405180910390fd5b6001600160a01b038216610c535760405162461bcd60e51b815260040180806020018281038252602381526020018061104c6023913960400191505060405180910390fd5b610c96816040518060600160405280602681526020016110d5602691396001600160a01b038616600090815260208190526040902054919063ffffffff610d2516565b6001600160a01b038085166000908152602081905260408082209390935590841681522054610ccb908263ffffffff610dbc16565b6001600160a01b038084166000818152602081815260409182902094909455805185815290519193928716927fddf252ad1be2c89b69c2b068fc378daa952ba7f163c4a11628f55a4df523b3ef92918290030190a3505050565b60008184841115610db45760405162461bcd60e51b81526004018080602001828103825283818151815260200191508051906020019080838360005b83811015610d79578181015183820152602001610d61565b50505050905090810190601f168015610da65780820380516001836020036101000a031916815260200191505b509250505060405180910390fd5b505050900390565b600082820183811015610e16576040805162461bcd60e51b815260206004820152601b60248201527f536166654d6174683a206164646974696f6e206f766572666c6f770000000000604482015290519081900360640190fd5b9392505050565b6001600160a01b038216610e78576040805162461bcd60e51b815260206004820152601f60248201527f45524332303a206d696e7420746f20746865207a65726f206164647265737300604482015290519081900360640190fd5b600254610e8b908263ffffffff610dbc16565b6002556001600160a01b038216600090815260208190526040902054610eb7908263ffffffff610dbc16565b6001600160a01b0383166000818152602081815260408083209490945583518581529351929391927fddf252ad1be2c89b69c2b068fc378daa952ba7f163c4a11628f55a4df523b3ef9281900390910190a35050565b6001600160a01b038216610f525760405162461bcd60e51b81526004018080602001828103825260218152602001806111236021913960400191505060405180910390fd5b610f958160405180606001604052806022815260200161106f602291396001600160a01b038516600090815260208190526040902054919063ffffffff610d2516565b6001600160a01b038316600090815260208190526040902055600254610fc1908263ffffffff61100916565b6002556040805182815290516000916001600160a01b038516917fddf252ad1be2c89b69c2b068fc378daa952ba7f163c4a11628f55a4df523b3ef9181900360200190a35050565b6000610e1683836040518060400160405280601e81526020017f536166654d6174683a207375627472616374696f6e206f766572666c6f770000815250610d2556fe45524332303a207472616e7366657220746f20746865207a65726f206164647265737345524332303a206275726e20616d6f756e7420657863656564732062616c616e636545524332303a20617070726f766520746f20746865207a65726f2061646472657373436c61696d61626c653a2063616c6c6572206973206e6f7420746865206f776e657245524332303a207472616e7366657220616d6f756e7420657863656564732062616c616e636545524332303a207472616e7366657220616d6f756e74206578636565647320616c6c6f77616e636545524332303a206275726e2066726f6d20746865207a65726f2061646472657373436c61696d61626c653a2063616c6c6572206973206e6f74207468652070656e64696e67206f776e657245524332303a207472616e736665722066726f6d20746865207a65726f206164647265737345524332303a20617070726f76652066726f6d20746865207a65726f206164647265737345524332303a2064656372656173656420616c6c6f77616e63652062656c6f77207a65726fa265627a7a7231582045992e7feb821d86e29674d34e49324476f2b73728a76d08f68ccea6df600ff764736f6c634300050c0032",
  "source": "pragma solidity ^0.5.12;\n\nimport \"openzeppelin-solidity/contracts/token/ERC20/ERC20.sol\";\nimport \"openzeppelin-solidity/contracts/token/ERC20/ERC20Detailed.sol\";\n\nimport \"../libraries/Claimable.sol\";\n\n/// @notice ERC20Shifted represents a digital asset that has been bridged on to\n/// the Ethereum ledger. It exposes mint and burn functions that can only be\n/// called by it's associated Shifter.\ncontract ERC20Shifted is ERC20, ERC20Detailed, Claimable {\n\n    /* solium-disable-next-line no-empty-blocks */\n    constructor(string memory _name, string memory _symbol, uint8 _decimals) public ERC20Detailed(_name, _symbol, _decimals) {}\n\n    /// @notice Allow the owner of the contract to recover funds accidentally\n    /// sent to the contract. To withdraw ETH, the token should be set to `0x0`.\n    function recoverTokens(address _token) external onlyOwner {\n        if (_token == address(0x0)) {\n            msg.sender.transfer(address(this).balance);\n        } else {\n            ERC20(_token).transfer(msg.sender, ERC20(_token).balanceOf(address(this)));\n        }\n    }\n\n    function burn(address _from, uint256 _amount) public onlyOwner {\n        _burn(_from, _amount);\n    }\n\n    function mint(address _to, uint256 _amount) public onlyOwner {\n        _mint(_to, _amount);\n    }\n}\n\n/// @dev The following are not necessary for deploying zBTC or zZEC contracts,\n/// but are used to track deployments.\n\n/* solium-disable-next-line no-empty-blocks */\ncontract zBTC is ERC20Shifted(\"Shifted BTC\", \"zBTC\", 8) {}\n\n/* solium-disable-next-line no-empty-blocks */\ncontract zZEC is ERC20Shifted(\"Shifted ZEC\", \"zZEC\", 8) {}\n\n/* solium-disable-next-line no-empty-blocks */\ncontract zBCH is ERC20Shifted(\"Shifted BCH\", \"zBCH\", 8) {}\n",
  "sourcePath": "darknode-sol/contracts/Shifter/ERC20Shifted.sol",
  "compiler": {
    "name": "solc",
    "version": "0.5.12+commit.7709ece9.Emscripten.clang"
  },
  "schemaVersion": "3.0.16",
  "updatedAt": "2019-10-31T03:50:41.078Z",
  "devdoc": {
    "methods": {
      "allowance(address,address)": {
        "details": "See {IERC20-allowance}."
      },
      "approve(address,uint256)": {
        "details": "See {IERC20-approve}.     * Requirements:     * - `spender` cannot be the zero address."
      },
      "balanceOf(address)": {
        "details": "See {IERC20-balanceOf}."
      },
      "claimOwnership()": {
        "details": "Allows the pendingOwner address to finalize the transfer."
      },
      "decimals()": {
        "details": "Returns the number of decimals used to get its user representation. For example, if `decimals` equals `2`, a balance of `505` tokens should be displayed to a user as `5,05` (`505 / 10 ** 2`).     * Tokens usually opt for a value of 18, imitating the relationship between Ether and Wei.     * NOTE: This information is only used for _display_ purposes: it in no way affects any of the arithmetic of the contract, including {IERC20-balanceOf} and {IERC20-transfer}."
      },
      "decreaseAllowance(address,uint256)": {
        "details": "Atomically decreases the allowance granted to `spender` by the caller.     * This is an alternative to {approve} that can be used as a mitigation for problems described in {IERC20-approve}.     * Emits an {Approval} event indicating the updated allowance.     * Requirements:     * - `spender` cannot be the zero address. - `spender` must have allowance for the caller of at least `subtractedValue`."
      },
      "increaseAllowance(address,uint256)": {
        "details": "Atomically increases the allowance granted to `spender` by the caller.     * This is an alternative to {approve} that can be used as a mitigation for problems described in {IERC20-approve}.     * Emits an {Approval} event indicating the updated allowance.     * Requirements:     * - `spender` cannot be the zero address."
      },
      "isOwner()": {
        "return": "true if `msg.sender` is the owner of the contract."
      },
      "name()": {
        "details": "Returns the name of the token."
      },
      "owner()": {
        "return": "the address of the owner."
      },
      "renounceOwnership()": {
        "details": "Allows the current owner to relinquish control of the contract. It will not be possible to call the functions with the `onlyOwner` modifier anymore."
      },
      "symbol()": {
        "details": "Returns the symbol of the token, usually a shorter version of the name."
      },
      "totalSupply()": {
        "details": "See {IERC20-totalSupply}."
      },
      "transfer(address,uint256)": {
        "details": "See {IERC20-transfer}.     * Requirements:     * - `recipient` cannot be the zero address. - the caller must have a balance of at least `amount`."
      },
      "transferFrom(address,address,uint256)": {
        "details": "See {IERC20-transferFrom}.     * Emits an {Approval} event indicating the updated allowance. This is not required by the EIP. See the note at the beginning of {ERC20};     * Requirements: - `sender` and `recipient` cannot be the zero address. - `sender` must have a balance of at least `amount`. - the caller must have allowance for `sender`'s tokens of at least `amount`."
      },
      "transferOwnership(address)": {
        "details": "Allows the current owner to set the pendingOwner address.",
        "params": {
          "newOwner": "The address to transfer ownership to."
        }
      }
    }
  },
  "userdoc": {
    "methods": {
      "recoverTokens(address)": {
        "notice": "Allow the owner of the contract to recover funds accidentally sent to the contract. To withdraw ETH, the token should be set to `0x0`."
      },
      "renounceOwnership()": {
        "notice": "Renouncing ownership will leave the contract without an owner, thereby removing any functionality that is only available to the owner."
      }
    }
  }
}