{
  "contractName": "BCH_DAI_Reserve",
  "abi": [
    {
      "inputs": [
        {
          "internalType": "contract ERC20",
          "name": "_baseToken",
          "type": "address"
        },
        {
          "internalType": "contract ERC20",
          "name": "_token",
          "type": "address"
        },
        {
          "internalType": "uint256",
          "name": "_feeInBIPS",
          "type": "uint256"
        }
      ],
      "payable": false,
      "stateMutability": "nonpayable",
      "type": "constructor"
    },
    {
      "anonymous": false,
      "inputs": [
        {
          "indexed": true,
          "internalType": "address",
          "name": "owner",
          "type": "address"
        },
        {
          "indexed": true,
          "internalType": "address",
          "name": "spender",
          "type": "address"
        },
        {
          "indexed": false,
          "internalType": "uint256",
          "name": "value",
          "type": "uint256"
        }
      ],
      "name": "Approval",
      "type": "event"
    },
    {
      "anonymous": false,
      "inputs": [
        {
          "indexed": false,
          "internalType": "address",
          "name": "_liquidityProvider",
          "type": "address"
        },
        {
          "indexed": false,
          "internalType": "uint256",
          "name": "_tokenAmount",
          "type": "uint256"
        },
        {
          "indexed": false,
          "internalType": "uint256",
          "name": "_baseTokenAmount",
          "type": "uint256"
        }
      ],
      "name": "LogAddLiquidity",
      "type": "event"
    },
    {
      "anonymous": false,
      "inputs": [
        {
          "indexed": false,
          "internalType": "uint256",
          "name": "_rcvAmount",
          "type": "uint256"
        }
      ],
      "name": "LogDebug",
      "type": "event"
    },
    {
      "anonymous": false,
      "inputs": [
        {
          "indexed": false,
          "internalType": "uint256",
          "name": "_previousFeeInBIPS",
          "type": "uint256"
        },
        {
          "indexed": false,
          "internalType": "uint256",
          "name": "_newFeeInBIPS",
          "type": "uint256"
        }
      ],
      "name": "LogFeesChanged",
      "type": "event"
    },
    {
      "anonymous": false,
      "inputs": [
        {
          "indexed": true,
          "internalType": "address",
          "name": "previousOwner",
          "type": "address"
        },
        {
          "indexed": true,
          "internalType": "address",
          "name": "newOwner",
          "type": "address"
        }
      ],
      "name": "OwnershipTransferred",
      "type": "event"
    },
    {
      "anonymous": false,
      "inputs": [
        {
          "indexed": true,
          "internalType": "address",
          "name": "from",
          "type": "address"
        },
        {
          "indexed": true,
          "internalType": "address",
          "name": "to",
          "type": "address"
        },
        {
          "indexed": false,
          "internalType": "uint256",
          "name": "value",
          "type": "uint256"
        }
      ],
      "name": "Transfer",
      "type": "event"
    },
    {
      "constant": false,
      "inputs": [
        {
          "internalType": "address",
          "name": "_liquidityProvider",
          "type": "address"
        },
        {
          "internalType": "uint256",
          "name": "_maxBaseToken",
          "type": "uint256"
        },
        {
          "internalType": "uint256",
          "name": "_tokenAmount",
          "type": "uint256"
        },
        {
          "internalType": "uint256",
          "name": "_deadline",
          "type": "uint256"
        }
      ],
      "name": "addLiquidity",
      "outputs": [
        {
          "internalType": "uint256",
          "name": "",
          "type": "uint256"
        }
      ],
      "payable": false,
      "stateMutability": "nonpayable",
      "type": "function"
    },
    {
      "constant": true,
      "inputs": [
        {
          "internalType": "address",
          "name": "owner",
          "type": "address"
        },
        {
          "internalType": "address",
          "name": "spender",
          "type": "address"
        }
      ],
      "name": "allowance",
      "outputs": [
        {
          "internalType": "uint256",
          "name": "",
          "type": "uint256"
        }
      ],
      "payable": false,
      "stateMutability": "view",
      "type": "function"
    },
    {
      "constant": false,
      "inputs": [
        {
          "internalType": "address",
          "name": "spender",
          "type": "address"
        },
        {
          "internalType": "uint256",
          "name": "amount",
          "type": "uint256"
        }
      ],
      "name": "approve",
      "outputs": [
        {
          "internalType": "bool",
          "name": "",
          "type": "bool"
        }
      ],
      "payable": false,
      "stateMutability": "nonpayable",
      "type": "function"
    },
    {
      "constant": true,
      "inputs": [
        {
          "internalType": "address",
          "name": "account",
          "type": "address"
        }
      ],
      "name": "balanceOf",
      "outputs": [
        {
          "internalType": "uint256",
          "name": "",
          "type": "uint256"
        }
      ],
      "payable": false,
      "stateMutability": "view",
      "type": "function"
    },
    {
      "constant": true,
      "inputs": [],
      "name": "baseToken",
      "outputs": [
        {
          "internalType": "contract ERC20",
          "name": "",
          "type": "address"
        }
      ],
      "payable": false,
      "stateMutability": "view",
      "type": "function"
    },
    {
      "constant": false,
      "inputs": [
        {
          "internalType": "address",
          "name": "_to",
          "type": "address"
        },
        {
          "internalType": "address",
          "name": "_from",
          "type": "address"
        },
        {
          "internalType": "uint256",
          "name": "_baseTokenAmount",
          "type": "uint256"
        }
      ],
      "name": "buy",
      "outputs": [
        {
          "internalType": "uint256",
          "name": "",
          "type": "uint256"
        }
      ],
      "payable": false,
      "stateMutability": "nonpayable",
      "type": "function"
    },
    {
      "constant": true,
      "inputs": [
        {
          "internalType": "uint256",
          "name": "_liquidity",
          "type": "uint256"
        }
      ],
      "name": "calculateBaseTokenValue",
      "outputs": [
        {
          "internalType": "uint256",
          "name": "",
          "type": "uint256"
        }
      ],
      "payable": false,
      "stateMutability": "view",
      "type": "function"
    },
    {
      "constant": true,
      "inputs": [
        {
          "internalType": "uint256",
          "name": "_sendAmt",
          "type": "uint256"
        }
      ],
      "name": "calculateBuyRcvAmt",
      "outputs": [
        {
          "internalType": "uint256",
          "name": "",
          "type": "uint256"
        }
      ],
      "payable": false,
      "stateMutability": "view",
      "type": "function"
    },
    {
      "constant": true,
      "inputs": [
        {
          "internalType": "uint256",
          "name": "_tokenAmount",
          "type": "uint256"
        }
      ],
      "name": "calculateExpectedLiquidity",
      "outputs": [
        {
          "internalType": "uint256",
          "name": "",
          "type": "uint256"
        }
      ],
      "payable": false,
      "stateMutability": "view",
      "type": "function"
    },
    {
      "constant": true,
      "inputs": [
        {
          "internalType": "uint256",
          "name": "_liquidity",
          "type": "uint256"
        }
      ],
      "name": "calculateQuoteTokenValue",
      "outputs": [
        {
          "internalType": "uint256",
          "name": "",
          "type": "uint256"
        }
      ],
      "payable": false,
      "stateMutability": "view",
      "type": "function"
    },
    {
      "constant": true,
      "inputs": [
        {
          "internalType": "uint256",
          "name": "_sendAmt",
          "type": "uint256"
        }
      ],
      "name": "calculateSellRcvAmt",
      "outputs": [
        {
          "internalType": "uint256",
          "name": "",
          "type": "uint256"
        }
      ],
      "payable": false,
      "stateMutability": "view",
      "type": "function"
    },
    {
      "constant": true,
      "inputs": [],
      "name": "decimals",
      "outputs": [
        {
          "internalType": "uint8",
          "name": "",
          "type": "uint8"
        }
      ],
      "payable": false,
      "stateMutability": "view",
      "type": "function"
    },
    {
      "constant": false,
      "inputs": [
        {
          "internalType": "address",
          "name": "spender",
          "type": "address"
        },
        {
          "internalType": "uint256",
          "name": "subtractedValue",
          "type": "uint256"
        }
      ],
      "name": "decreaseAllowance",
      "outputs": [
        {
          "internalType": "bool",
          "name": "",
          "type": "bool"
        }
      ],
      "payable": false,
      "stateMutability": "nonpayable",
      "type": "function"
    },
    {
      "constant": true,
      "inputs": [
        {
          "internalType": "uint256",
          "name": "_quoteTokenAmount",
          "type": "uint256"
        }
      ],
      "name": "expectedBaseTokenAmount",
      "outputs": [
        {
          "internalType": "uint256",
          "name": "",
          "type": "uint256"
        }
      ],
      "payable": false,
      "stateMutability": "view",
      "type": "function"
    },
    {
      "constant": true,
      "inputs": [],
      "name": "feeChangeBlock",
      "outputs": [
        {
          "internalType": "uint256",
          "name": "",
          "type": "uint256"
        }
      ],
      "payable": false,
      "stateMutability": "view",
      "type": "function"
    },
    {
      "constant": true,
      "inputs": [],
      "name": "feeInBIPS",
      "outputs": [
        {
          "internalType": "uint256",
          "name": "",
          "type": "uint256"
        }
      ],
      "payable": false,
      "stateMutability": "view",
      "type": "function"
    },
    {
      "constant": false,
      "inputs": [
        {
          "internalType": "address",
          "name": "spender",
          "type": "address"
        },
        {
          "internalType": "uint256",
          "name": "addedValue",
          "type": "uint256"
        }
      ],
      "name": "increaseAllowance",
      "outputs": [
        {
          "internalType": "bool",
          "name": "",
          "type": "bool"
        }
      ],
      "payable": false,
      "stateMutability": "nonpayable",
      "type": "function"
    },
    {
      "constant": true,
      "inputs": [],
      "name": "isOwner",
      "outputs": [
        {
          "internalType": "bool",
          "name": "",
          "type": "bool"
        }
      ],
      "payable": false,
      "stateMutability": "view",
      "type": "function"
    },
    {
      "constant": true,
      "inputs": [],
      "name": "name",
      "outputs": [
        {
          "internalType": "string",
          "name": "",
          "type": "string"
        }
      ],
      "payable": false,
      "stateMutability": "view",
      "type": "function"
    },
    {
      "constant": true,
      "inputs": [],
      "name": "owner",
      "outputs": [
        {
          "internalType": "address",
          "name": "",
          "type": "address"
        }
      ],
      "payable": false,
      "stateMutability": "view",
      "type": "function"
    },
    {
      "constant": true,
      "inputs": [],
      "name": "pendingFeeInBIPS",
      "outputs": [
        {
          "internalType": "uint256",
          "name": "",
          "type": "uint256"
        }
      ],
      "payable": false,
      "stateMutability": "view",
      "type": "function"
    },
    {
      "constant": false,
      "inputs": [
        {
          "internalType": "address",
          "name": "_token",
          "type": "address"
        }
      ],
      "name": "recoverTokens",
      "outputs": [],
      "payable": false,
      "stateMutability": "nonpayable",
      "type": "function"
    },
    {
      "constant": false,
      "inputs": [
        {
          "internalType": "uint256",
          "name": "_liquidity",
          "type": "uint256"
        }
      ],
      "name": "removeLiquidity",
      "outputs": [
        {
          "internalType": "uint256",
          "name": "",
          "type": "uint256"
        },
        {
          "internalType": "uint256",
          "name": "",
          "type": "uint256"
        }
      ],
      "payable": false,
      "stateMutability": "nonpayable",
      "type": "function"
    },
    {
      "constant": false,
      "inputs": [],
      "name": "renounceOwnership",
      "outputs": [],
      "payable": false,
      "stateMutability": "nonpayable",
      "type": "function"
    },
    {
      "constant": false,
      "inputs": [
        {
          "internalType": "address",
          "name": "_to",
          "type": "address"
        },
        {
          "internalType": "address",
          "name": "_from",
          "type": "address"
        },
        {
          "internalType": "uint256",
          "name": "_tokenAmount",
          "type": "uint256"
        }
      ],
      "name": "sell",
      "outputs": [
        {
          "internalType": "uint256",
          "name": "",
          "type": "uint256"
        }
      ],
      "payable": false,
      "stateMutability": "nonpayable",
      "type": "function"
    },
    {
      "constant": true,
      "inputs": [],
      "name": "symbol",
      "outputs": [
        {
          "internalType": "string",
          "name": "",
          "type": "string"
        }
      ],
      "payable": false,
      "stateMutability": "view",
      "type": "function"
    },
    {
      "constant": true,
      "inputs": [],
      "name": "token",
      "outputs": [
        {
          "internalType": "contract ERC20",
          "name": "",
          "type": "address"
        }
      ],
      "payable": false,
      "stateMutability": "view",
      "type": "function"
    },
    {
      "constant": true,
      "inputs": [],
      "name": "totalSupply",
      "outputs": [
        {
          "internalType": "uint256",
          "name": "",
          "type": "uint256"
        }
      ],
      "payable": false,
      "stateMutability": "view",
      "type": "function"
    },
    {
      "constant": false,
      "inputs": [
        {
          "internalType": "address",
          "name": "recipient",
          "type": "address"
        },
        {
          "internalType": "uint256",
          "name": "amount",
          "type": "uint256"
        }
      ],
      "name": "transfer",
      "outputs": [
        {
          "internalType": "bool",
          "name": "",
          "type": "bool"
        }
      ],
      "payable": false,
      "stateMutability": "nonpayable",
      "type": "function"
    },
    {
      "constant": false,
      "inputs": [
        {
          "internalType": "address",
          "name": "sender",
          "type": "address"
        },
        {
          "internalType": "address",
          "name": "recipient",
          "type": "address"
        },
        {
          "internalType": "uint256",
          "name": "amount",
          "type": "uint256"
        }
      ],
      "name": "transferFrom",
      "outputs": [
        {
          "internalType": "bool",
          "name": "",
          "type": "bool"
        }
      ],
      "payable": false,
      "stateMutability": "nonpayable",
      "type": "function"
    },
    {
      "constant": false,
      "inputs": [
        {
          "internalType": "address",
          "name": "newOwner",
          "type": "address"
        }
      ],
      "name": "transferOwnership",
      "outputs": [],
      "payable": false,
      "stateMutability": "nonpayable",
      "type": "function"
    },
    {
      "constant": false,
      "inputs": [
        {
          "internalType": "uint256",
          "name": "_pendingFeeInBIPS",
          "type": "uint256"
        }
      ],
      "name": "updateFee",
      "outputs": [],
      "payable": false,
      "stateMutability": "nonpayable",
      "type": "function"
    }
  ],
  "bytecode": "0x60806040523480156200001157600080fd5b506040516200260d3803806200260d833981810160405260608110156200003757600080fd5b50805160208083015160409384015184518086018652601b81527f426974636f696e43617368204c697175696469747920546f6b656e00000000008185019081528651808801909752600587527f4243484c54000000000000000000000000000000000000000000000000000000948701949094528051949592949193909291600891879187918791879187918791620000d59160039190620001af565b508151620000eb906004906020850190620001af565b506005805460ff191660ff92909216919091179055506200010d9050620001aa565b60058054610100600160a81b0319166101006001600160a01b03938416810291909117918290556040519104909116906000907f8be0079c531659141344cd1fd0a4f28419497f9722a3daafe3b4186f6b6457e0908290a3600980546001600160a01b039485166001600160a01b031991821617909155600a80549390941692169190911790915560068190556007555062000251945050505050565b335b90565b828054600181600116156101000203166002900490600052602060002090601f016020900481019282601f10620001f257805160ff191683800117855562000222565b8280016001018555821562000222579182015b828111156200022257825182559160200191906001019062000205565b506200023092915062000234565b5090565b620001ac91905b808211156200023057600081556001016200023b565b6123ac80620002616000396000f3fe608060405234801561001057600080fd5b50600436106101f05760003560e01c80639012c4a81161010f578063c2e679eb116100a2578063dd62ed3e11610071578063dd62ed3e146105d6578063ee1d5a3a14610604578063f2fde38b14610621578063fc0c546a14610647576101f0565b8063c2e679eb14610573578063c55dae631461057b578063cae270b614610583578063d1e88c72146105b9576101f0565b8063a9059cbb116100de578063a9059cbb14610505578063b4d5fa7f14610531578063b93e70a41461054e578063bc9b2f4d1461056b576101f0565b80639012c4a81461047e57806395d89b411461049b5780639c8f9f23146104a3578063a457c2d7146104d9576101f0565b8063395093511161018757806370a082311161015657806370a0823114610424578063715018a61461044a5780638da5cb5b146104525780638f32d59b14610476576101f0565b806339509351146103b65780633d74fc4b146103e25780634b90ad54146103ff5780636b4210a51461041c576101f0565b806318160ddd116101c357806318160ddd146103225780631ece366a1461032a57806323b872dd14610362578063313ce56714610398576101f0565b806306fdde03146101f5578063095ea7b314610272578063153e66e6146102b257806316114acd146102fa575b600080fd5b6101fd61064f565b6040805160208082528351818301528351919283929083019185019080838360005b8381101561023757818101518382015260200161021f565b50505050905090810190601f1680156102645780820380516001836020036101000a031916815260200191505b509250505060405180910390f35b61029e6004803603604081101561028857600080fd5b506001600160a01b0381351690602001356106e5565b604080519115158252519081900360200190f35b6102e8600480360360608110156102c857600080fd5b506001600160a01b03813581169160208101359091169060400135610703565b60408051918252519081900360200190f35b6103206004803603602081101561031057600080fd5b50356001600160a01b03166107a6565b005b6102e861094f565b6102e86004803603608081101561034057600080fd5b506001600160a01b038135169060208101359060408101359060600135610955565b61029e6004803603606081101561037857600080fd5b506001600160a01b03813581169160208101359091169060400135610b5a565b6103a0610be7565b6040805160ff9092168252519081900360200190f35b61029e600480360360408110156103cc57600080fd5b506001600160a01b038135169060200135610bf0565b6102e8600480360360208110156103f857600080fd5b5035610c44565b6102e86004803603602081101561041557600080fd5b5035610d27565b6102e8610e36565b6102e86004803603602081101561043a57600080fd5b50356001600160a01b0316610e3c565b610320610e57565b61045a610eee565b604080516001600160a01b039092168252519081900360200190f35b61029e610f02565b6103206004803603602081101561049457600080fd5b5035610f2d565b6101fd61105d565b6104c0600480360360208110156104b957600080fd5b50356110be565b6040805192835260208301919091528051918290030190f35b61029e600480360360408110156104ef57600080fd5b506001600160a01b03813516906020013561117d565b61029e6004803603604081101561051b57600080fd5b506001600160a01b0381351690602001356111eb565b6102e86004803603602081101561054757600080fd5b50356111ff565b6102e86004803603602081101561056457600080fd5b5035611354565b6102e86113ed565b6102e86113f3565b61045a6113f9565b6102e86004803603606081101561059957600080fd5b506001600160a01b03813581169160208101359091169060400135611408565b6102e8600480360360208110156105cf57600080fd5b50356114a3565b6102e8600480360360408110156105ec57600080fd5b506001600160a01b03813581169160200135166115c7565b6102e86004803603602081101561061a57600080fd5b50356115f2565b6103206004803603602081101561063757600080fd5b50356001600160a01b0316611699565b61045a6116e9565b60038054604080516020601f60026000196101006001881615020190951694909404938401819004810282018101909252828152606093909290918301828280156106db5780601f106106b0576101008083540402835291602001916106db565b820191906000526020600020905b8154815290600101906020018083116106be57829003601f168201915b5050505050905090565b60006106f96106f26116f8565b84846116fc565b5060015b92915050565b600061070d61094f565b610755576040805162461bcd60e51b81526020600482015260146024820152737265736572766520686173206e6f2066756e647360601b604482015290519081900360640190fd5b6000610760836114a3565b600954909150610781906001600160a01b031685308663ffffffff6117e816565b600a5461079e906001600160a01b0316868363ffffffff61184816565b949350505050565b6107ae610f02565b6107ed576040805162461bcd60e51b8152602060048201819052602482015260008051602061221a833981519152604482015290519081900360640190fd5b6009546001600160a01b038281169116148015906108195750600a546001600160a01b03828116911614155b6108545760405162461bcd60e51b81526004018080602001828103825260258152602001806121806025913960400191505060405180910390fd5b604080516370a0823160e01b815230600482015290516001600160a01b0383169163a9059cbb91339184916370a0823191602480820192602092909190829003018186803b1580156108a557600080fd5b505afa1580156108b9573d6000803e3d6000fd5b505050506040513d60208110156108cf57600080fd5b5051604080516001600160e01b031960e086901b1681526001600160a01b03909316600484015260248301919091525160448083019260209291908290030181600087803b15801561092057600080fd5b505af1158015610934573d6000803e3d6000fd5b505050506040513d602081101561094a57600080fd5b505050565b60025490565b6000814311156109ac576040805162461bcd60e51b815260206004820152601c60248201527f6164644c69717569646974792072657175657374206578706972656400000000604482015290519081900360640190fd5b60006109b7846115f2565b905060006109c361094f565b1115610ac15760008411610a085760405162461bcd60e51b815260040180806020018281038252602c8152602001806121a5602c913960400191505060405180910390fd5b6000610a1385610d27565b905085811115610a545760405162461bcd60e51b815260040180806020018281038252603581526020018061227f6035913960400191505060405180910390fd5b600954610a72906001600160a01b031688308463ffffffff6117e816565b604080516001600160a01b03891681526020810187905280820183905290517f181674bd5cf175c47c164c13df571685a06664e17a0dff9ad3473062a4d95b3a9181900360600190a150610b29565b600954610adf906001600160a01b031687308863ffffffff6117e816565b604080516001600160a01b03881681526020810186905280820187905290517f181674bd5cf175c47c164c13df571685a06664e17a0dff9ad3473062a4d95b3a9181900360600190a15b600a54610b47906001600160a01b031633308763ffffffff6117e816565b610b51868261189a565b95945050505050565b6000610b6784848461198a565b610bdd84610b736116f8565b610bd8856040518060600160405280602881526020016121f2602891396001600160a01b038a16600090815260016020526040812090610bb16116f8565b6001600160a01b03168152602081019190915260400160002054919063ffffffff611ae616565b6116fc565b5060019392505050565b60055460ff1690565b60006106f9610bfd6116f8565b84610bd88560016000610c0e6116f8565b6001600160a01b03908116825260208083019390935260409182016000908120918c16815292529020549063ffffffff611b7d16565b6000610c4e61094f565b610c92576040805162461bcd60e51b815260206004820152601060248201526f6469766973696f6e206279207a65726f60801b604482015290519081900360640190fd5b600a54604080516370a0823160e01b815230600482015290516000926001600160a01b0316916370a08231916024808301926020929190829003018186803b158015610cdd57600080fd5b505afa158015610cf1573d6000803e3d6000fd5b505050506040513d6020811015610d0757600080fd5b50519050610d1361094f565b81840281610d1d57fe5b049150505b919050565b600954604080516370a0823160e01b8152306004820152905160009283926001600160a01b03909116916370a0823191602480820192602092909190829003018186803b158015610d7757600080fd5b505afa158015610d8b573d6000803e3d6000fd5b505050506040513d6020811015610da157600080fd5b5051600a54604080516370a0823160e01b815230600482015290519293506000926001600160a01b03909216916370a0823191602480820192602092909190829003018186803b158015610df457600080fd5b505afa158015610e08573d6000803e3d6000fd5b505050506040513d6020811015610e1e57600080fd5b505190508084830281610e2d57fe5b04949350505050565b60065481565b6001600160a01b031660009081526020819052604090205490565b610e5f610f02565b610e9e576040805162461bcd60e51b8152602060048201819052602482015260008051602061221a833981519152604482015290519081900360640190fd5b60055460405160009161010090046001600160a01b0316907f8be0079c531659141344cd1fd0a4f28419497f9722a3daafe3b4186f6b6457e0908390a360058054610100600160a81b0319169055565b60055461010090046001600160a01b031690565b60055460009061010090046001600160a01b0316610f1e6116f8565b6001600160a01b031614905090565b610f35610f02565b610f74576040805162461bcd60e51b8152602060048201819052602482015260008051602061221a833981519152604482015290519081900360640190fd5b60075481141561100d57600854431015610fbf5760405162461bcd60e51b815260040180806020018281038252602c8152602001806122fd602c913960400191505060405180910390fd5b7f924fee72f327d39fcd64493fdf9a6ca8f5e48c48a4ff5e4b5874a64ab3bb1c2d600654600754604051808381526020018281526020019250505060405180910390a160075460065561105a565b6101f4811061104d5760405162461bcd60e51b815260040180806020018281038252602481526020018061223a6024913960400191505060405180910390fd5b6064430160085560078190555b50565b60048054604080516020601f60026000196101006001881615020190951694909404938401819004810282018101909252828152606093909290918301828280156106db5780601f106106b0576101008083540402835291602001916106db565b600080826110cb33610e3c565b1015611115576040805162461bcd60e51b8152602060048201526014602482015273696e73756666696369656e742062616c616e636560601b604482015290519081900360640190fd5b600061112084611354565b9050600061112d85610c44565b90506111393386611bde565b600954611156906001600160a01b0316338463ffffffff61184816565b600a54611173906001600160a01b0316338363ffffffff61184816565b9092509050915091565b60006106f961118a6116f8565b84610bd88560405180606001604052806025815260200161235360259139600160006111b46116f8565b6001600160a01b03908116825260208083019390935260409182016000908120918d1681529252902054919063ffffffff611ae616565b60006106f96111f86116f8565b848461198a565b600954604080516370a0823160e01b8152306004820152905160009283926001600160a01b03909116916370a0823191602480820192602092909190829003018186803b15801561124f57600080fd5b505afa158015611263573d6000803e3d6000fd5b505050506040513d602081101561127957600080fd5b5051600a54604080516370a0823160e01b815230600482015290519293506000926001600160a01b03909216916370a0823191602480820192602092909190829003018186803b1580156112cc57600080fd5b505afa1580156112e0573d6000803e3d6000fd5b505050506040513d60208110156112f657600080fd5b50519050600061132b61130f838763ffffffff611b7d16565b61131f858563ffffffff611cda16565b9063ffffffff611d3316565b9050600061133f848363ffffffff611d7516565b905061134a81611db7565b9695505050505050565b600061135e61094f565b6113a2576040805162461bcd60e51b815260206004820152601060248201526f6469766973696f6e206279207a65726f60801b604482015290519081900360640190fd5b600954604080516370a0823160e01b815230600482015290516000926001600160a01b0316916370a08231916024808301926020929190829003018186803b158015610cdd57600080fd5b60075481565b60085481565b6009546001600160a01b031681565b600061141261094f565b61145a576040805162461bcd60e51b81526020600482015260146024820152737265736572766520686173206e6f2066756e647360601b604482015290519081900360640190fd5b6000611465836111ff565b600a54909150611486906001600160a01b031685308663ffffffff6117e816565b60095461079e906001600160a01b0316868363ffffffff61184816565b600954604080516370a0823160e01b8152306004820152905160009283926001600160a01b03909116916370a0823191602480820192602092909190829003018186803b1580156114f357600080fd5b505afa158015611507573d6000803e3d6000fd5b505050506040513d602081101561151d57600080fd5b5051600a54604080516370a0823160e01b815230600482015290519293506000926001600160a01b03909216916370a0823191602480820192602092909190829003018186803b15801561157057600080fd5b505afa158015611584573d6000803e3d6000fd5b505050506040513d602081101561159a57600080fd5b5051905060006115b361130f848763ffffffff611b7d16565b9050600061133f838363ffffffff611d7516565b6001600160a01b03918216600090815260016020908152604080832093909416825291909152205490565b60006115fc61094f565b61160a575060028102610d22565b600a54604080516370a0823160e01b815230600482015290516001600160a01b03909216916370a0823191602480820192602092909190829003018186803b15801561165557600080fd5b505afa158015611669573d6000803e3d6000fd5b505050506040513d602081101561167f57600080fd5b50518261168a61094f565b028161169257fe5b0492915050565b6116a1610f02565b6116e0576040805162461bcd60e51b8152602060048201819052602482015260008051602061221a833981519152604482015290519081900360640190fd5b61105a81611dcc565b600a546001600160a01b031681565b3390565b6001600160a01b0383166117415760405162461bcd60e51b81526004018080602001828103825260248152602001806122d96024913960400191505060405180910390fd5b6001600160a01b0382166117865760405162461bcd60e51b81526004018080602001828103825260228152602001806121386022913960400191505060405180910390fd5b6001600160a01b03808416600081815260016020908152604080832094871680845294825291829020859055815185815291517f8c5be1e5ebec7d5bd14f71427d1e84f3dd0314c0f7b2291e5b200ac8c7c3b9259281900390910190a3505050565b604080516001600160a01b0385811660248301528416604482015260648082018490528251808303909101815260849091019091526020810180516001600160e01b03166323b872dd60e01b179052611842908590611e78565b50505050565b604080516001600160a01b038416602482015260448082018490528251808303909101815260649091019091526020810180516001600160e01b031663a9059cbb60e01b17905261094a908490611e78565b6001600160a01b0382166118f5576040805162461bcd60e51b815260206004820152601f60248201527f45524332303a206d696e7420746f20746865207a65726f206164647265737300604482015290519081900360640190fd5b600254611908908263ffffffff611b7d16565b6002556001600160a01b038216600090815260208190526040902054611934908263ffffffff611b7d16565b6001600160a01b0383166000818152602081815260408083209490945583518581529351929391927fddf252ad1be2c89b69c2b068fc378daa952ba7f163c4a11628f55a4df523b3ef9281900390910190a35050565b6001600160a01b0383166119cf5760405162461bcd60e51b81526004018080602001828103825260258152602001806122b46025913960400191505060405180910390fd5b6001600160a01b038216611a145760405162461bcd60e51b81526004018080602001828103825260238152602001806120cd6023913960400191505060405180910390fd5b611a578160405180606001604052806026815260200161215a602691396001600160a01b038616600090815260208190526040902054919063ffffffff611ae616565b6001600160a01b038085166000908152602081905260408082209390935590841681522054611a8c908263ffffffff611b7d16565b6001600160a01b038084166000818152602081815260409182902094909455805185815290519193928716927fddf252ad1be2c89b69c2b068fc378daa952ba7f163c4a11628f55a4df523b3ef92918290030190a3505050565b60008184841115611b755760405162461bcd60e51b81526004018080602001828103825283818151815260200191508051906020019080838360005b83811015611b3a578181015183820152602001611b22565b50505050905090810190601f168015611b675780820380516001836020036101000a031916815260200191505b509250505060405180910390fd5b505050900390565b600082820183811015611bd7576040805162461bcd60e51b815260206004820152601b60248201527f536166654d6174683a206164646974696f6e206f766572666c6f770000000000604482015290519081900360640190fd5b9392505050565b6001600160a01b038216611c235760405162461bcd60e51b815260040180806020018281038252602181526020018061225e6021913960400191505060405180910390fd5b611c66816040518060600160405280602281526020016120f0602291396001600160a01b038516600090815260208190526040902054919063ffffffff611ae616565b6001600160a01b038316600090815260208190526040902055600254611c92908263ffffffff611d7516565b6002556040805182815290516000916001600160a01b038516917fddf252ad1be2c89b69c2b068fc378daa952ba7f163c4a11628f55a4df523b3ef9181900360200190a35050565b600082611ce9575060006106fd565b82820282848281611cf657fe5b0414611bd75760405162461bcd60e51b81526004018080602001828103825260218152602001806121d16021913960400191505060405180910390fd5b6000611bd783836040518060400160405280601a81526020017f536166654d6174683a206469766973696f6e206279207a65726f000000000000815250612030565b6000611bd783836040518060400160405280601e81526020017f536166654d6174683a207375627472616374696f6e206f766572666c6f770000815250611ae6565b60006127106006546127100383028161169257fe5b6001600160a01b038116611e115760405162461bcd60e51b81526004018080602001828103825260268152602001806121126026913960400191505060405180910390fd5b6005546040516001600160a01b0380841692610100900416907f8be0079c531659141344cd1fd0a4f28419497f9722a3daafe3b4186f6b6457e090600090a3600580546001600160a01b0390921661010002610100600160a81b0319909216919091179055565b611e8a826001600160a01b0316612095565b611edb576040805162461bcd60e51b815260206004820152601f60248201527f5361666545524332303a2063616c6c20746f206e6f6e2d636f6e747261637400604482015290519081900360640190fd5b60006060836001600160a01b0316836040518082805190602001908083835b60208310611f195780518252601f199092019160209182019101611efa565b6001836020036101000a0380198251168184511680821785525050505050509050019150506000604051808303816000865af19150503d8060008114611f7b576040519150601f19603f3d011682016040523d82523d6000602084013e611f80565b606091505b509150915081611fd7576040805162461bcd60e51b815260206004820181905260248201527f5361666545524332303a206c6f772d6c6576656c2063616c6c206661696c6564604482015290519081900360640190fd5b80511561184257808060200190516020811015611ff357600080fd5b50516118425760405162461bcd60e51b815260040180806020018281038252602a815260200180612329602a913960400191505060405180910390fd5b6000818361207f5760405162461bcd60e51b8152602060048201818152835160248401528351909283926044909101919085019080838360008315611b3a578181015183820152602001611b22565b50600083858161208b57fe5b0495945050505050565b6000813f7fc5d2460186f7233c927e7db2dcc703c0e500b653ca82273b7bfad8045d85a470811580159061079e575014159291505056fe45524332303a207472616e7366657220746f20746865207a65726f206164647265737345524332303a206275726e20616d6f756e7420657863656564732062616c616e63654f776e61626c653a206e6577206f776e657220697320746865207a65726f206164647265737345524332303a20617070726f766520746f20746865207a65726f206164647265737345524332303a207472616e7366657220616d6f756e7420657863656564732062616c616e63656e6f7420616c6c6f77656420746f207265636f766572207265736572766520746f6b656e73746f6b656e20616d6f756e74206973206c657373207468616e20616c6c6f776564206d696e20616d6f756e74536166654d6174683a206d756c7469706c69636174696f6e206f766572666c6f7745524332303a207472616e7366657220616d6f756e74206578636565647320616c6c6f77616e63654f776e61626c653a2063616c6c6572206973206e6f7420746865206f776e6572666565206d757374206e6f742065786365656420686172642d636f646564206c696d697445524332303a206275726e2066726f6d20746865207a65726f206164647265737363616c63756c61746564206261736520616d6f756e74206578636565647320746865206d6178696d756d20616d6f756e742073657445524332303a207472616e736665722066726f6d20746865207a65726f206164647265737345524332303a20617070726f76652066726f6d20746865207a65726f20616464726573736d75737420776169742031303020626c6f636b73206265666f7265207570646174696e6720746865206665655361666545524332303a204552433230206f7065726174696f6e20646964206e6f74207375636365656445524332303a2064656372656173656420616c6c6f77616e63652062656c6f77207a65726fa265627a7a7231582005295871b73279ae00bb5c41b3dd2a3b2e713242a2a139862ac6055eb54ce07064736f6c634300050c0032",
  "source": "pragma solidity ^0.5.12;\n\nimport \"darknode-sol/contracts/Shifter/Shifter.sol\";\nimport \"openzeppelin-solidity/contracts/token/ERC20/ERC20.sol\";\nimport \"openzeppelin-solidity/contracts/token/ERC20/SafeERC20.sol\";\nimport \"openzeppelin-solidity/contracts/token/ERC20/ERC20Detailed.sol\";\nimport \"openzeppelin-solidity/contracts/math/SafeMath.sol\";\n\n/// @title DEXReserve\n/// @notice The DEX Reserve holds the liquidity for a single token pair for the\n/// DEX. Anyone can add liquidity, receiving in return a token representing\n/// a share in the funds held by the reserve.\ncontract DEXReserve is ERC20, ERC20Detailed, Ownable {\n    using SafeMath for uint256;\n    using SafeERC20 for ERC20;\n\n    uint256 public feeInBIPS;\n    uint256 public pendingFeeInBIPS;\n    uint256 public feeChangeBlock;\n\n    ERC20 public baseToken;\n    ERC20 public token;\n    event LogAddLiquidity(address _liquidityProvider, uint256 _tokenAmount, uint256 _baseTokenAmount);\n    event LogDebug(uint256 _rcvAmount);\n    event LogFeesChanged(uint256 _previousFeeInBIPS, uint256 _newFeeInBIPS);\n\n    constructor (string memory _name, string memory _symbol, uint8 _decimals, ERC20 _baseToken, ERC20 _token, uint256 _feeInBIPS) public ERC20Detailed(_name, _symbol, _decimals) {\n        baseToken = _baseToken;\n        token = _token;\n        feeInBIPS = _feeInBIPS;\n        pendingFeeInBIPS = _feeInBIPS;\n    }\n\n    /// @notice Allow anyone to recover funds accidentally sent to the contract.\n    function recoverTokens(address _token) external onlyOwner {\n        require(ERC20(_token) != baseToken && ERC20(_token) != token, \"not allowed to recover reserve tokens\");\n        ERC20(_token).transfer(msg.sender, ERC20(_token).balanceOf(address(this)));\n    }\n\n    /// @notice Allow the reserve manager too update the contract fees.\n    /// There is a 10 block delay to reduce the chance of front-running trades.\n    function updateFee(uint256 _pendingFeeInBIPS) external onlyOwner {\n        if (_pendingFeeInBIPS == pendingFeeInBIPS) {\n            require(block.number >= feeChangeBlock, \"must wait 100 blocks before updating the fee\");\n            emit LogFeesChanged(feeInBIPS, pendingFeeInBIPS);\n            feeInBIPS = pendingFeeInBIPS;\n        } else {\n            // @dev 500 was chosen as an arbitrary limit - the fee should be\n            // well below that.\n            require(_pendingFeeInBIPS < 500, \"fee must not exceed hard-coded limit\");\n            feeChangeBlock = block.number + 100;\n            pendingFeeInBIPS = _pendingFeeInBIPS;\n        }\n    }\n\n    function buy(address _to, address _from, uint256 _baseTokenAmount) external returns (uint256)  {\n        require(totalSupply() != 0, \"reserve has no funds\");\n        uint256 rcvAmount = calculateBuyRcvAmt(_baseTokenAmount);\n        baseToken.safeTransferFrom(_from, address(this), _baseTokenAmount);\n        token.safeTransfer(_to, rcvAmount);\n        return rcvAmount;\n    }\n\n    function sell(address _to, address _from, uint256 _tokenAmount) external returns (uint256) {\n        require(totalSupply() != 0, \"reserve has no funds\");\n        uint256 rcvAmount = calculateSellRcvAmt(_tokenAmount);\n        token.safeTransferFrom(_from, address(this), _tokenAmount);\n        baseToken.safeTransfer(_to, rcvAmount);\n        return rcvAmount;\n    }\n\n    function calculateBuyRcvAmt(uint256 _sendAmt) public view returns (uint256) {\n        uint256 baseReserve = baseToken.balanceOf(address(this));\n        uint256 tokenReserve = token.balanceOf(address(this));\n        uint256 finalQuoteTokenAmount = (baseReserve.mul(tokenReserve)).div(baseReserve.add(_sendAmt));\n        uint256 rcvAmt = tokenReserve.sub(finalQuoteTokenAmount);\n        return _removeFees(rcvAmt);\n    }\n\n    function calculateSellRcvAmt(uint256 _sendAmt) public view returns (uint256) {\n        uint256 baseReserve = baseToken.balanceOf(address(this));\n        uint256 tokenReserve = token.balanceOf(address(this));\n        uint256 finalBaseTokenAmount = (baseReserve.mul(tokenReserve)).div(tokenReserve.add(_sendAmt));\n        uint256 rcvAmt = baseReserve.sub(finalBaseTokenAmount);\n        return _removeFees(rcvAmt);\n    }\n\n    function removeLiquidity(uint256 _liquidity) external returns (uint256, uint256) {\n        require(balanceOf(msg.sender) >= _liquidity, \"insufficient balance\");\n        uint256 baseTokenAmount = calculateBaseTokenValue(_liquidity);\n        uint256 quoteTokenAmount = calculateQuoteTokenValue(_liquidity);\n        _burn(msg.sender, _liquidity);\n        baseToken.safeTransfer(msg.sender, baseTokenAmount);\n        token.safeTransfer(msg.sender, quoteTokenAmount);\n        return (baseTokenAmount, quoteTokenAmount);\n    }\n\n    function addLiquidity(\n        address _liquidityProvider, uint256 _maxBaseToken, uint256 _tokenAmount, uint256 _deadline\n        ) external returns (uint256) {\n        require(block.number <= _deadline, \"addLiquidity request expired\");\n        uint256 liquidity = calculateExpectedLiquidity(_tokenAmount); \n        if (totalSupply() > 0) {\n            require(_tokenAmount > 0, \"token amount is less than allowed min amount\");\n            uint256 baseAmount = expectedBaseTokenAmount(_tokenAmount);\n            require(baseAmount <= _maxBaseToken, \"calculated base amount exceeds the maximum amount set\");\n            baseToken.safeTransferFrom(_liquidityProvider, address(this), baseAmount);\n            emit LogAddLiquidity(_liquidityProvider, _tokenAmount, baseAmount);\n        } else {\n            baseToken.safeTransferFrom(_liquidityProvider, address(this), _maxBaseToken);\n            emit LogAddLiquidity(_liquidityProvider, _tokenAmount, _maxBaseToken);\n        }\n        token.safeTransferFrom(msg.sender, address(this), _tokenAmount);\n        _mint(_liquidityProvider, liquidity);\n        return liquidity;\n    }\n\n    function calculateBaseTokenValue(uint256 _liquidity) public view returns (uint256) {\n        require(totalSupply() != 0, \"division by zero\");\n        uint256 baseReserve = baseToken.balanceOf(address(this));\n        return (_liquidity * baseReserve)/totalSupply();\n    }\n\n    function calculateQuoteTokenValue(uint256 _liquidity) public view returns (uint256) {\n        require(totalSupply() != 0,  \"division by zero\");\n        uint256 tokenReserve = token.balanceOf(address(this));\n        return (_liquidity * tokenReserve)/totalSupply();\n    }\n\n    function expectedBaseTokenAmount(uint256 _quoteTokenAmount) public view returns (uint256) {\n        uint256 baseReserve = baseToken.balanceOf(address(this));\n        uint256 tokenReserve = token.balanceOf(address(this));\n        return (_quoteTokenAmount * baseReserve)/tokenReserve;\n    }\n\n    function calculateExpectedLiquidity(uint256 _tokenAmount) public view returns (uint256) {\n        if (totalSupply() == 0) {\n            return _tokenAmount*2;\n        }\n        return ((totalSupply()*_tokenAmount)/token.balanceOf(address(this)));\n    }\n\n    function _removeFees(uint256 _amount) internal view returns (uint256) {\n        return (_amount * (10000 - feeInBIPS))/10000;\n    }\n}\n\n/* solhint-disable-next-line */ /* solium-disable-next-line */\ncontract BTC_DAI_Reserve is DEXReserve {\n    constructor (ERC20 _baseToken, ERC20 _token, uint256 _feeInBIPS) public DEXReserve(\"Bitcoin Liquidity Token\", \"BTCLT\", 8, _baseToken, _token, _feeInBIPS) {\n    }\n}\n\n/* solhint-disable-next-line */ /* solium-disable-next-line */\ncontract ZEC_DAI_Reserve is DEXReserve {\n    constructor (ERC20 _baseToken, ERC20 _token, uint256 _feeInBIPS) public DEXReserve(\"ZCash Liquidity Token\", \"ZECLT\", 8, _baseToken, _token, _feeInBIPS) {\n    }\n}\n\n/* solhint-disable-next-line */ /* solium-disable-next-line */\ncontract BCH_DAI_Reserve is DEXReserve {\n    constructor (ERC20 _baseToken, ERC20 _token, uint256 _feeInBIPS) public DEXReserve(\"BitcoinCash Liquidity Token\", \"BCHLT\", 8, _baseToken, _token, _feeInBIPS) {\n    }\n}",
  "sourcePath": "dex-demo/ethereum-contracts/contracts/DEXReserve.sol",
  "compiler": {
    "name": "solc",
    "version": "0.5.12+commit.7709ece9.Emscripten.clang"
  },
  "schemaVersion": "3.0.16",
  "updatedAt": "2019-10-31T03:50:41.128Z",
  "devdoc": {
    "methods": {
      "allowance(address,address)": {
        "details": "See {IERC20-allowance}."
      },
      "approve(address,uint256)": {
        "details": "See {IERC20-approve}.     * Requirements:     * - `spender` cannot be the zero address."
      },
      "balanceOf(address)": {
        "details": "See {IERC20-balanceOf}."
      },
      "decimals()": {
        "details": "Returns the number of decimals used to get its user representation. For example, if `decimals` equals `2`, a balance of `505` tokens should be displayed to a user as `5,05` (`505 / 10 ** 2`).     * Tokens usually opt for a value of 18, imitating the relationship between Ether and Wei.     * NOTE: This information is only used for _display_ purposes: it in no way affects any of the arithmetic of the contract, including {IERC20-balanceOf} and {IERC20-transfer}."
      },
      "decreaseAllowance(address,uint256)": {
        "details": "Atomically decreases the allowance granted to `spender` by the caller.     * This is an alternative to {approve} that can be used as a mitigation for problems described in {IERC20-approve}.     * Emits an {Approval} event indicating the updated allowance.     * Requirements:     * - `spender` cannot be the zero address. - `spender` must have allowance for the caller of at least `subtractedValue`."
      },
      "increaseAllowance(address,uint256)": {
        "details": "Atomically increases the allowance granted to `spender` by the caller.     * This is an alternative to {approve} that can be used as a mitigation for problems described in {IERC20-approve}.     * Emits an {Approval} event indicating the updated allowance.     * Requirements:     * - `spender` cannot be the zero address."
      },
      "isOwner()": {
        "details": "Returns true if the caller is the current owner."
      },
      "name()": {
        "details": "Returns the name of the token."
      },
      "owner()": {
        "details": "Returns the address of the current owner."
      },
      "renounceOwnership()": {
        "details": "Leaves the contract without owner. It will not be possible to call `onlyOwner` functions anymore. Can only be called by the current owner.     * NOTE: Renouncing ownership will leave the contract without an owner, thereby removing any functionality that is only available to the owner."
      },
      "symbol()": {
        "details": "Returns the symbol of the token, usually a shorter version of the name."
      },
      "totalSupply()": {
        "details": "See {IERC20-totalSupply}."
      },
      "transfer(address,uint256)": {
        "details": "See {IERC20-transfer}.     * Requirements:     * - `recipient` cannot be the zero address. - the caller must have a balance of at least `amount`."
      },
      "transferFrom(address,address,uint256)": {
        "details": "See {IERC20-transferFrom}.     * Emits an {Approval} event indicating the updated allowance. This is not required by the EIP. See the note at the beginning of {ERC20};     * Requirements: - `sender` and `recipient` cannot be the zero address. - `sender` must have a balance of at least `amount`. - the caller must have allowance for `sender`'s tokens of at least `amount`."
      },
      "transferOwnership(address)": {
        "details": "Transfers ownership of the contract to a new account (`newOwner`). Can only be called by the current owner."
      }
    }
  },
  "userdoc": {
    "methods": {
      "recoverTokens(address)": {
        "notice": "Allow anyone to recover funds accidentally sent to the contract."
      },
      "updateFee(uint256)": {
        "notice": "Allow the reserve manager too update the contract fees. There is a 10 block delay to reduce the chance of front-running trades."
      }
    }
  }
}