{
  "contractName": "BCHShifter",
  "abi": [
    {
      "inputs": [
        {
          "internalType": "contract ERC20Shifted",
          "name": "_token",
          "type": "address"
        },
        {
          "internalType": "address",
          "name": "_feeRecipient",
          "type": "address"
        },
        {
          "internalType": "address",
          "name": "_mintAuthority",
          "type": "address"
        },
        {
          "internalType": "uint16",
          "name": "_shiftInFee",
          "type": "uint16"
        },
        {
          "internalType": "uint16",
          "name": "_shiftOutFee",
          "type": "uint16"
        },
        {
          "internalType": "uint256",
          "name": "_minShiftOutAmount",
          "type": "uint256"
        }
      ],
      "payable": false,
      "stateMutability": "nonpayable",
      "type": "constructor"
    },
    {
      "anonymous": false,
      "inputs": [
        {
          "indexed": true,
          "internalType": "address",
          "name": "_to",
          "type": "address"
        },
        {
          "indexed": false,
          "internalType": "uint256",
          "name": "_amount",
          "type": "uint256"
        },
        {
          "indexed": true,
          "internalType": "uint256",
          "name": "_shiftID",
          "type": "uint256"
        },
        {
          "indexed": true,
          "internalType": "bytes32",
          "name": "_signedMessageHash",
          "type": "bytes32"
        }
      ],
      "name": "LogShiftIn",
      "type": "event"
    },
    {
      "anonymous": false,
      "inputs": [
        {
          "indexed": false,
          "internalType": "bytes",
          "name": "_to",
          "type": "bytes"
        },
        {
          "indexed": false,
          "internalType": "uint256",
          "name": "_amount",
          "type": "uint256"
        },
        {
          "indexed": true,
          "internalType": "uint256",
          "name": "_shiftID",
          "type": "uint256"
        },
        {
          "indexed": true,
          "internalType": "bytes",
          "name": "_indexedTo",
          "type": "bytes"
        }
      ],
      "name": "LogShiftOut",
      "type": "event"
    },
    {
      "anonymous": false,
      "inputs": [
        {
          "indexed": true,
          "internalType": "address",
          "name": "previousOwner",
          "type": "address"
        },
        {
          "indexed": true,
          "internalType": "address",
          "name": "newOwner",
          "type": "address"
        }
      ],
      "name": "OwnershipTransferred",
      "type": "event"
    },
    {
      "constant": false,
      "inputs": [],
      "name": "claimOwnership",
      "outputs": [],
      "payable": false,
      "stateMutability": "nonpayable",
      "type": "function"
    },
    {
      "constant": false,
      "inputs": [],
      "name": "claimTokenOwnership",
      "outputs": [],
      "payable": false,
      "stateMutability": "nonpayable",
      "type": "function"
    },
    {
      "constant": true,
      "inputs": [],
      "name": "feeRecipient",
      "outputs": [
        {
          "internalType": "address",
          "name": "",
          "type": "address"
        }
      ],
      "payable": false,
      "stateMutability": "view",
      "type": "function"
    },
    {
      "constant": true,
      "inputs": [
        {
          "internalType": "bytes32",
          "name": "_pHash",
          "type": "bytes32"
        },
        {
          "internalType": "uint256",
          "name": "_amount",
          "type": "uint256"
        },
        {
          "internalType": "address",
          "name": "_to",
          "type": "address"
        },
        {
          "internalType": "bytes32",
          "name": "_nHash",
          "type": "bytes32"
        }
      ],
      "name": "hashForSignature",
      "outputs": [
        {
          "internalType": "bytes32",
          "name": "",
          "type": "bytes32"
        }
      ],
      "payable": false,
      "stateMutability": "view",
      "type": "function"
    },
    {
      "constant": true,
      "inputs": [],
      "name": "isOwner",
      "outputs": [
        {
          "internalType": "bool",
          "name": "",
          "type": "bool"
        }
      ],
      "payable": false,
      "stateMutability": "view",
      "type": "function"
    },
    {
      "constant": true,
      "inputs": [],
      "name": "minShiftAmount",
      "outputs": [
        {
          "internalType": "uint256",
          "name": "",
          "type": "uint256"
        }
      ],
      "payable": false,
      "stateMutability": "view",
      "type": "function"
    },
    {
      "constant": true,
      "inputs": [],
      "name": "mintAuthority",
      "outputs": [
        {
          "internalType": "address",
          "name": "",
          "type": "address"
        }
      ],
      "payable": false,
      "stateMutability": "view",
      "type": "function"
    },
    {
      "constant": true,
      "inputs": [],
      "name": "nextShiftID",
      "outputs": [
        {
          "internalType": "uint256",
          "name": "",
          "type": "uint256"
        }
      ],
      "payable": false,
      "stateMutability": "view",
      "type": "function"
    },
    {
      "constant": true,
      "inputs": [],
      "name": "owner",
      "outputs": [
        {
          "internalType": "address",
          "name": "",
          "type": "address"
        }
      ],
      "payable": false,
      "stateMutability": "view",
      "type": "function"
    },
    {
      "constant": false,
      "inputs": [
        {
          "internalType": "address",
          "name": "_token",
          "type": "address"
        }
      ],
      "name": "recoverTokens",
      "outputs": [],
      "payable": false,
      "stateMutability": "nonpayable",
      "type": "function"
    },
    {
      "constant": false,
      "inputs": [],
      "name": "renounceOwnership",
      "outputs": [],
      "payable": false,
      "stateMutability": "nonpayable",
      "type": "function"
    },
    {
      "constant": false,
      "inputs": [
        {
          "internalType": "bytes32",
          "name": "_pHash",
          "type": "bytes32"
        },
        {
          "internalType": "uint256",
          "name": "_amount",
          "type": "uint256"
        },
        {
          "internalType": "bytes32",
          "name": "_nHash",
          "type": "bytes32"
        },
        {
          "internalType": "bytes",
          "name": "_sig",
          "type": "bytes"
        }
      ],
      "name": "shiftIn",
      "outputs": [
        {
          "internalType": "uint256",
          "name": "",
          "type": "uint256"
        }
      ],
      "payable": false,
      "stateMutability": "nonpayable",
      "type": "function"
    },
    {
      "constant": true,
      "inputs": [],
      "name": "shiftInFee",
      "outputs": [
        {
          "internalType": "uint16",
          "name": "",
          "type": "uint16"
        }
      ],
      "payable": false,
      "stateMutability": "view",
      "type": "function"
    },
    {
      "constant": false,
      "inputs": [
        {
          "internalType": "bytes",
          "name": "_to",
          "type": "bytes"
        },
        {
          "internalType": "uint256",
          "name": "_amount",
          "type": "uint256"
        }
      ],
      "name": "shiftOut",
      "outputs": [
        {
          "internalType": "uint256",
          "name": "",
          "type": "uint256"
        }
      ],
      "payable": false,
      "stateMutability": "nonpayable",
      "type": "function"
    },
    {
      "constant": true,
      "inputs": [],
      "name": "shiftOutFee",
      "outputs": [
        {
          "internalType": "uint16",
          "name": "",
          "type": "uint16"
        }
      ],
      "payable": false,
      "stateMutability": "view",
      "type": "function"
    },
    {
      "constant": true,
      "inputs": [
        {
          "internalType": "bytes32",
          "name": "",
          "type": "bytes32"
        }
      ],
      "name": "status",
      "outputs": [
        {
          "internalType": "bool",
          "name": "",
          "type": "bool"
        }
      ],
      "payable": false,
      "stateMutability": "view",
      "type": "function"
    },
    {
      "constant": true,
      "inputs": [],
      "name": "token",
      "outputs": [
        {
          "internalType": "contract ERC20Shifted",
          "name": "",
          "type": "address"
        }
      ],
      "payable": false,
      "stateMutability": "view",
      "type": "function"
    },
    {
      "constant": false,
      "inputs": [
        {
          "internalType": "address",
          "name": "newOwner",
          "type": "address"
        }
      ],
      "name": "transferOwnership",
      "outputs": [],
      "payable": false,
      "stateMutability": "nonpayable",
      "type": "function"
    },
    {
      "constant": false,
      "inputs": [
        {
          "internalType": "contract Shifter",
          "name": "_nextTokenOwner",
          "type": "address"
        }
      ],
      "name": "transferTokenOwnership",
      "outputs": [],
      "payable": false,
      "stateMutability": "nonpayable",
      "type": "function"
    },
    {
      "constant": false,
      "inputs": [
        {
          "internalType": "address",
          "name": "_nextFeeRecipient",
          "type": "address"
        }
      ],
      "name": "updateFeeRecipient",
      "outputs": [],
      "payable": false,
      "stateMutability": "nonpayable",
      "type": "function"
    },
    {
      "constant": false,
      "inputs": [
        {
          "internalType": "uint256",
          "name": "_minShiftOutAmount",
          "type": "uint256"
        }
      ],
      "name": "updateMinimumShiftOutAmount",
      "outputs": [],
      "payable": false,
      "stateMutability": "nonpayable",
      "type": "function"
    },
    {
      "constant": false,
      "inputs": [
        {
          "internalType": "address",
          "name": "_nextMintAuthority",
          "type": "address"
        }
      ],
      "name": "updateMintAuthority",
      "outputs": [],
      "payable": false,
      "stateMutability": "nonpayable",
      "type": "function"
    },
    {
      "constant": false,
      "inputs": [
        {
          "internalType": "uint16",
          "name": "_nextFee",
          "type": "uint16"
        }
      ],
      "name": "updateShiftInFee",
      "outputs": [],
      "payable": false,
      "stateMutability": "nonpayable",
      "type": "function"
    },
    {
      "constant": false,
      "inputs": [
        {
          "internalType": "uint16",
          "name": "_nextFee",
          "type": "uint16"
        }
      ],
      "name": "updateShiftOutFee",
      "outputs": [],
      "payable": false,
      "stateMutability": "nonpayable",
      "type": "function"
    },
    {
      "constant": true,
      "inputs": [
        {
          "internalType": "bytes32",
          "name": "_signedMessageHash",
          "type": "bytes32"
        },
        {
          "internalType": "bytes",
          "name": "_sig",
          "type": "bytes"
        }
      ],
      "name": "verifySignature",
      "outputs": [
        {
          "internalType": "bool",
          "name": "",
          "type": "bool"
        }
      ],
      "payable": false,
      "stateMutability": "view",
      "type": "function"
    },
    {
      "constant": true,
      "inputs": [],
      "name": "version",
      "outputs": [
        {
          "internalType": "uint8",
          "name": "",
          "type": "uint8"
        }
      ],
      "payable": false,
      "stateMutability": "view",
      "type": "function"
    }
  ],
  "bytecode": "0x60806040526001805460ff60a01b19167402000000000000000000000000000000000000000017905560006007553480156200003a57600080fd5b5060405162001f1b38038062001f1b833981810160405260c08110156200006057600080fd5b50805160208201516040808401516060850151608086015160a090960151600180546001600160a01b03191633179081905593519596949592949193919290918791879187918791879187916001600160a01b0316906000907f8be0079c531659141344cd1fd0a4f28419497f9722a3daafe3b4186f6b6457e0908290a36002819055600380546001600160a01b038089166001600160a01b03199283161790925560048054928716929091169190911790556005805461ffff8481167601000000000000000000000000000000000000000000000261ffff60b01b19918716740100000000000000000000000000000000000000000261ffff60a01b1990931692909217161790556200017d856001600160e01b036200018f16565b5050505050505050505050506200028d565b620001a26001600160e01b036200027c16565b620001f9576040517f08c379a000000000000000000000000000000000000000000000000000000000815260040180806020018281038252602281526020018062001ed56022913960400191505060405180910390fd5b6001600160a01b0381166200025a576040517f08c379a000000000000000000000000000000000000000000000000000000000815260040180806020018281038252602481526020018062001ef76024913960400191505060405180910390fd5b600580546001600160a01b0319166001600160a01b0392909216919091179055565b6001546001600160a01b0316331490565b611c38806200029d6000396000f3fe608060405234801561001057600080fd5b506004361061018e5760003560e01c80638da5cb5b116100de578063bb4a1d8c11610097578063e58732a711610071578063e58732a71461057b578063f160d36914610598578063f2fde38b146105be578063fc0c546a146105e45761018e565b8063bb4a1d8c1461040d578063daca6f78146104c6578063dfe03d32146105735761018e565b80638da5cb5b146103ad5780638f32d59b146103b55780639340b21e146103bd5780639d5d4cd8146103c5578063a2f6ed8c146103e4578063ab595e0c146104055761018e565b80634e71e0c81161014b57806354fd4d501161012557806354fd4d50146102d7578063715018a6146102f55780638723c377146102fd57806387c0b881146103a55761018e565b80634e71e0c8146102545780635219a5661461025c57806352ad0d5e146102a65761018e565b80630130a33b1461019357806310731a65146101bb57806316114acd146101c357806321e6b53d146101e957806324a5309e1461020f5780634690484014610230575b600080fd5b6101b9600480360360208110156101a957600080fd5b50356001600160a01b03166105ec565b005b6101b9610651565b6101b9600480360360208110156101d957600080fd5b50356001600160a01b03166106bb565b6101b9600480360360208110156101ff57600080fd5b50356001600160a01b031661083b565b6101b96004803603602081101561022557600080fd5b503561ffff1661093a565b61023861099f565b604080516001600160a01b039092168252519081900360200190f35b6101b96109ae565b6102946004803603608081101561027257600080fd5b508035906020810135906001600160a01b036040820135169060600135610a5c565b60408051918252519081900360200190f35b6102c3600480360360208110156102bc57600080fd5b5035610aac565b604080519115158252519081900360200190f35b6102df610ac1565b6040805160ff9092168252519081900360200190f35b6101b9610ad1565b6102946004803603604081101561031357600080fd5b81019060208101813564010000000081111561032e57600080fd5b82018360208201111561034057600080fd5b8035906020019184600183028401116401000000008311171561036257600080fd5b91908080601f0160208091040260200160405190810160405280939291908181526020018383808284376000920191909152509295505091359250610b5e915050565b610294610e31565b610238610e37565b6102c3610e46565b610238610e57565b6103cd610e66565b6040805161ffff9092168252519081900360200190f35b6101b9600480360360208110156103fa57600080fd5b503561ffff16610e77565b610294610edc565b6102946004803603608081101561042357600080fd5b8135916020810135916040820135919081019060808101606082013564010000000081111561045157600080fd5b82018360208201111561046357600080fd5b8035906020019184600183028401116401000000008311171561048557600080fd5b91908080601f016020809104026020016040519081016040528093929190818152602001838380828437600092019190915250929550610ee2945050505050565b6102c3600480360360408110156104dc57600080fd5b813591908101906040810160208201356401000000008111156104fe57600080fd5b82018360208201111561051057600080fd5b8035906020019184600183028401116401000000008311171561053257600080fd5b91908080601f0160208091040260200160405190810160405280939291908181526020018383808284376000920191909152509295506111b6945050505050565b6103cd6111da565b6101b96004803603602081101561059157600080fd5b50356111eb565b6101b9600480360360208110156105ae57600080fd5b50356001600160a01b0316611233565b6101b9600480360360208110156105d457600080fd5b50356001600160a01b03166112dd565b610238611342565b6105f4610e46565b61062f5760405162461bcd60e51b8152600401808060200182810382526022815260200180611ad46022913960400191505060405180910390fd5b600480546001600160a01b0319166001600160a01b0392909216919091179055565b600360009054906101000a90046001600160a01b03166001600160a01b0316634e71e0c86040518163ffffffff1660e01b8152600401600060405180830381600087803b1580156106a157600080fd5b505af11580156106b5573d6000803e3d6000fd5b50505050565b6106c3610e46565b6106fe5760405162461bcd60e51b8152600401808060200182810382526022815260200180611ad46022913960400191505060405180910390fd5b6001600160a01b03811661073f576040513390303180156108fc02916000818181858888f19350505050158015610739573d6000803e3d6000fd5b50610838565b604080516370a0823160e01b815230600482015290516001600160a01b0383169163a9059cbb91339184916370a0823191602480820192602092909190829003018186803b15801561079057600080fd5b505afa1580156107a4573d6000803e3d6000fd5b505050506040513d60208110156107ba57600080fd5b5051604080516001600160e01b031960e086901b1681526001600160a01b03909316600484015260248301919091525160448083019260209291908290030181600087803b15801561080b57600080fd5b505af115801561081f573d6000803e3d6000fd5b505050506040513d602081101561083557600080fd5b50505b50565b610843610e46565b61087e5760405162461bcd60e51b8152600401808060200182810382526022815260200180611ad46022913960400191505060405180910390fd5b6003546040805163f2fde38b60e01b81526001600160a01b0384811660048301529151919092169163f2fde38b91602480830192600092919082900301818387803b1580156108cc57600080fd5b505af11580156108e0573d6000803e3d6000fd5b50505050806001600160a01b03166310731a656040518163ffffffff1660e01b8152600401600060405180830381600087803b15801561091f57600080fd5b505af1158015610933573d6000803e3d6000fd5b5050505050565b610942610e46565b61097d5760405162461bcd60e51b8152600401808060200182810382526022815260200180611ad46022913960400191505060405180910390fd5b6005805461ffff909216600160a01b0261ffff60a01b19909216919091179055565b6005546001600160a01b031681565b6000546001600160a01b031633146109f75760405162461bcd60e51b815260040180806020018281038252602a815260200180611b72602a913960400191505060405180910390fd5b600080546001546040516001600160a01b039283169392909116917f8be0079c531659141344cd1fd0a4f28419497f9722a3daafe3b4186f6b6457e091a360008054600180546001600160a01b03199081166001600160a01b03841617909155169055565b60035460408051602080820197909752808201959095526001600160a01b0391821660608601529216608084015260a0808401919091528151808403909101815260c09092019052805191012090565b60066020526000908152604090205460ff1681565b600154600160a01b900460ff1681565b610ad9610e46565b610b145760405162461bcd60e51b8152600401808060200182810382526022815260200180611ad46022913960400191505060405180910390fd5b6001546040516000916001600160a01b0316907f8be0079c531659141344cd1fd0a4f28419497f9722a3daafe3b4186f6b6457e0908390a3600180546001600160a01b0319169055565b6000825160001415610bb7576040805162461bcd60e51b815260206004820152601c60248201527f536869667465723a20746f206164647265737320697320656d70747900000000604482015290519081900360640190fd5b600254821015610bf85760405162461bcd60e51b8152600401808060200182810382526038815260200180611af66038913960400191505060405180910390fd5b600554600090610c289061271090610c1c908690600160b01b900461ffff16611351565b9063ffffffff6113b116565b60035460408051632770a7eb60e21b81523360048201526024810187905290519293506001600160a01b0390911691639dc29fac9160448082019260009290919082900301818387803b158015610c7e57600080fd5b505af1158015610c92573d6000803e3d6000fd5b5050600354600554604080516340c10f1960e01b81526001600160a01b0392831660048201526024810187905290519190921693506340c10f199250604480830192600092919082900301818387803b158015610cee57600080fd5b505af1158015610d02573d6000803e3d6000fd5b505050506000610d1b82856113f390919063ffffffff16565b9050846040518082805190602001908083835b60208310610d4d5780518252601f199092019160209182019101610d2e565b6001836020036101000a03801982511681845116808217855250505050505090500191505060405180910390206007547f2275318eaeb892d338c6737eebf5f31747c1eab22b63ccbc00cd93d4e785c11687846040518080602001838152602001828103825284818151815260200191508051906020019080838360005b83811015610de3578181015183820152602001610dcb565b50505050905090810190601f168015610e105780820380516001836020036101000a031916815260200191505b50935050505060405180910390a36007805460010190559150505b92915050565b60025481565b6001546001600160a01b031690565b6001546001600160a01b0316331490565b6004546001600160a01b031681565b600554600160b01b900461ffff1681565b610e7f610e46565b610eba5760405162461bcd60e51b8152600401808060200182810382526022815260200180611ad46022913960400191505060405180910390fd5b6005805461ffff909216600160b01b0261ffff60b01b19909216919091179055565b60075481565b600080610ef186863387610a5c565b60008181526006602052604090205490915060ff1615610f425760405162461bcd60e51b8152600401808060200182810382526021815260200180611be36021913960400191505060405180910390fd5b610f4c81846111b6565b61103357610faf604051806060016040528060238152602001611ab160239139610f7583611435565b6040518060400160405280600a8152602001690161039b4b3b732b91d160b51b815250610faa610fa586896115a4565b61172d565b6118a0565b60405162461bcd60e51b81526004018080602001828103825283818151815260200191508051906020019080838360005b83811015610ff8578181015183820152602001610fe0565b50505050905090810190601f1680156110255780820380516001836020036101000a031916815260200191505b509250505060405180910390fd5b6000818152600660205260408120805460ff191660011790556005546110749061271090610c1c90899061ffff600160a01b9091041663ffffffff61135116565b90506000611088878363ffffffff6113f316565b600354604080516340c10f1960e01b81523360048201526024810184905290519293506001600160a01b03909116916340c10f199160448082019260009290919082900301818387803b1580156110de57600080fd5b505af11580156110f2573d6000803e3d6000fd5b5050600354600554604080516340c10f1960e01b81526001600160a01b0392831660048201526024810188905290519190921693506340c10f199250604480830192600092919082900301818387803b15801561114e57600080fd5b505af1158015611162573d6000803e3d6000fd5b505060075460408051858152905187945091925033917f66519073cf8fb3a91e4ee5a511c26928b523e9641f0aed760af126159fb375029181900360200190a4600780546001019055979650505050505050565b60006111c283836115a4565b6004546001600160a01b039182169116149392505050565b600554600160a01b900461ffff1681565b6111f3610e46565b61122e5760405162461bcd60e51b8152600401808060200182810382526022815260200180611ad46022913960400191505060405180910390fd5b600255565b61123b610e46565b6112765760405162461bcd60e51b8152600401808060200182810382526022815260200180611ad46022913960400191505060405180910390fd5b6001600160a01b0381166112bb5760405162461bcd60e51b8152600401808060200182810382526024815260200180611bbf6024913960400191505060405180910390fd5b600580546001600160a01b0319166001600160a01b0392909216919091179055565b6112e5610e46565b6113205760405162461bcd60e51b8152600401808060200182810382526022815260200180611ad46022913960400191505060405180910390fd5b600080546001600160a01b0319166001600160a01b0392909216919091179055565b6003546001600160a01b031681565b60008261136057506000610e2b565b8282028284828161136d57fe5b04146113aa5760405162461bcd60e51b8152600401808060200182810382526021815260200180611b2e6021913960400191505060405180910390fd5b9392505050565b60006113aa83836040518060400160405280601a81526020017f536166654d6174683a206469766973696f6e206279207a65726f0000000000008152506119f1565b60006113aa83836040518060400160405280601e81526020017f536166654d6174683a207375627472616374696f6e206f766572666c6f770000815250611a56565b604080518082018252601081526f181899199a1a9b1b9c1cb0b131b232b360811b602082015281516042808252608082019093526060928492918491602082018180388339019050509050600360fc1b8160008151811061149257fe5b60200101906001600160f81b031916908160001a905350600f60fb1b816001815181106114bb57fe5b60200101906001600160f81b031916908160001a90535060005b602081101561159b578260048583602081106114ed57fe5b1a60f81b6001600160f81b031916901c60f81c60ff168151811061150d57fe5b602001015160f81c60f81b82826002026002018151811061152a57fe5b60200101906001600160f81b031916908160001a9053508284826020811061154e57fe5b825191901a600f1690811061155f57fe5b602001015160f81c60f81b82826002026003018151811061157c57fe5b60200101906001600160f81b031916908160001a9053506001016114d5565b50949350505050565b600081516041146115fc576040805162461bcd60e51b815260206004820152601d60248201527f7369676e61747572652773206c656e67746820697320696e76616c6964000000604482015290519081900360640190fd5b60208201516040830151606084015160001a7f7fffffffffffffffffffffffffffffff5d576e7357a4501ddfe92f46681b20a082111561166d5760405162461bcd60e51b8152600401808060200182810382526023815260200180611b4f6023913960400191505060405180910390fd5b8060ff16601b1415801561168557508060ff16601c14155b156116c15760405162461bcd60e51b8152600401808060200182810382526023815260200180611b9c6023913960400191505060405180910390fd5b6040805160008152602080820180845289905260ff8416828401526060820186905260808201859052915160019260a0808401939192601f1981019281900390910190855afa158015611718573d6000803e3d6000fd5b5050604051601f190151979650505050505050565b604080518082018252601081526f181899199a1a9b1b9c1cb0b131b232b360811b60208201528151602a80825260608281019094526001600160a01b03851692918491602082018180388339019050509050600360fc1b8160008151811061179157fe5b60200101906001600160f81b031916908160001a905350600f60fb1b816001815181106117ba57fe5b60200101906001600160f81b031916908160001a90535060005b601481101561159b578260048583600c01602081106117ef57fe5b1a60f81b6001600160f81b031916901c60f81c60ff168151811061180f57fe5b602001015160f81c60f81b82826002026002018151811061182c57fe5b60200101906001600160f81b031916908160001a905350828482600c016020811061185357fe5b825191901a600f1690811061186457fe5b602001015160f81c60f81b82826002026003018151811061188157fe5b60200101906001600160f81b031916908160001a9053506001016117d4565b6060848484846040516020018085805190602001908083835b602083106118d85780518252601f1990920191602091820191016118b9565b51815160209384036101000a600019018019909216911617905287519190930192870191508083835b602083106119205780518252601f199092019160209182019101611901565b51815160209384036101000a600019018019909216911617905286519190930192860191508083835b602083106119685780518252601f199092019160209182019101611949565b51815160209384036101000a600019018019909216911617905285519190930192850191508083835b602083106119b05780518252601f199092019160209182019101611991565b6001836020036101000a0380198251168184511680821785525050505050509050019450505050506040516020818303038152906040529050949350505050565b60008183611a405760405162461bcd60e51b8152602060048201818152835160248401528351909283926044909101919085019080838360008315610ff8578181015183820152602001610fe0565b506000838581611a4c57fe5b0495945050505050565b60008184841115611aa85760405162461bcd60e51b8152602060048201818152835160248401528351909283926044909101919085019080838360008315610ff8578181015183820152602001610fe0565b50505090039056fe536869667465723a20696e76616c6964207369676e6174757265202d20686173683a20436c61696d61626c653a2063616c6c6572206973206e6f7420746865206f776e6572536869667465723a20616d6f756e74206973206c657373207468616e20746865206d696e696d756d2073686966744f757420616d6f756e74536166654d6174683a206d756c7469706c69636174696f6e206f766572666c6f777369676e61747572652773207320697320696e207468652077726f6e672072616e6765436c61696d61626c653a2063616c6c6572206973206e6f74207468652070656e64696e67206f776e65727369676e61747572652773207620697320696e207468652077726f6e672072616e6765536869667465723a2066656520726563697069656e742063616e6e6f7420626520307830536869667465723a206e6f6e6365206861736820616c7265616479207370656e74a265627a7a7231582018369262da66cf3e03e3d39adfbe63905b3e578a8e20157387b5a3adb12cda4364736f6c634300050c0032436c61696d61626c653a2063616c6c6572206973206e6f7420746865206f776e6572536869667465723a2066656520726563697069656e742063616e6e6f7420626520307830",
  "source": "pragma solidity ^0.5.12;\n\nimport \"openzeppelin-solidity/contracts/math/SafeMath.sol\";\nimport \"openzeppelin-solidity/contracts/ownership/Ownable.sol\";\nimport \"openzeppelin-solidity/contracts/cryptography/ECDSA.sol\";\n\nimport \"../libraries/Claimable.sol\";\nimport \"../libraries/String.sol\";\nimport \"./ERC20Shifted.sol\";\n\n/// @notice Shifter handles verifying mint and burn requests. A mintAuthority\n/// approves new assets to be minted by providing a digital signature. An owner\n/// of an asset can request for it to be burnt.\ncontract Shifter is Claimable {\n    using SafeMath for uint256;\n\n    uint8 public version = 2;\n\n    uint256 constant BIPS_DENOMINATOR = 10000;\n    uint256 public minShiftAmount;\n\n    /// @notice Each Shifter token is tied to a specific shifted token.\n    ERC20Shifted public token;\n\n    /// @notice The mintAuthority is an address that can sign mint requests.\n    address public mintAuthority;\n\n    /// @dev feeRecipient is assumed to be an address (or a contract) that can\n    /// accept erc20 payments it cannot be 0x0.\n    /// @notice When tokens are mint or burnt, a portion of the tokens are\n    /// forwarded to a fee recipient.\n    address public feeRecipient;\n\n    /// @notice The shiftIn fee in bips.\n    uint16 public shiftInFee;\n\n    /// @notice The shiftOut fee in bips.\n    uint16 public shiftOutFee;\n\n    /// @notice Each nHash can only be seen once.\n    mapping (bytes32=>bool) public status;\n\n    // LogShiftIn and LogShiftOut contain a unique `shiftID` that identifies\n    // the mint or burn event.\n    uint256 public nextShiftID = 0;\n\n    event LogShiftIn(\n        address indexed _to,\n        uint256 _amount,\n        uint256 indexed _shiftID,\n        bytes32 indexed _signedMessageHash\n    );\n    event LogShiftOut(\n        bytes _to,\n        uint256 _amount,\n        uint256 indexed _shiftID,\n        bytes indexed _indexedTo\n    );\n\n    /// @param _token The ERC20Shifted this Shifter is responsible for.\n    /// @param _feeRecipient The recipient of burning and minting fees.\n    /// @param _mintAuthority The address of the key that can sign mint\n    ///        requests.\n    /// @param _shiftInFee The amount subtracted each shiftIn request and\n    ///        forwarded to the feeRecipient. In BIPS.\n    /// @param _shiftOutFee The amount subtracted each shiftOut request and\n    ///        forwarded to the feeRecipient. In BIPS.\n    constructor(ERC20Shifted _token, address _feeRecipient, address _mintAuthority, uint16 _shiftInFee, uint16 _shiftOutFee, uint256 _minShiftOutAmount) public {\n        minShiftAmount = _minShiftOutAmount;\n        token = _token;\n        mintAuthority = _mintAuthority;\n        shiftInFee = _shiftInFee;\n        shiftOutFee = _shiftOutFee;\n        updateFeeRecipient(_feeRecipient);\n    }\n\n    /// @notice Allow the owner of the contract to recover funds accidentally\n    /// sent to the contract. To withdraw ETH, the token should be set to `0x0`.\n    function recoverTokens(address _token) external onlyOwner {\n        if (_token == address(0x0)) {\n            msg.sender.transfer(address(this).balance);\n        } else {\n            ERC20(_token).transfer(msg.sender, ERC20(_token).balanceOf(address(this)));\n        }\n    }\n\n    // Public functions ////////////////////////////////////////////////////////\n\n    /// @notice Claims ownership of the token passed in to the constructor.\n    /// `transferStoreOwnership` must have previously been called.\n    /// Anyone can call this function.\n    function claimTokenOwnership() public {\n        token.claimOwnership();\n    }\n\n    /// @notice Allow the owner to update the owner of the ERC20Shifted token.\n    function transferTokenOwnership(Shifter _nextTokenOwner) public onlyOwner {\n        token.transferOwnership(address(_nextTokenOwner));\n        _nextTokenOwner.claimTokenOwnership();\n    }\n\n    /// @notice Allow the owner to update the fee recipient.\n    ///\n    /// @param _nextMintAuthority The address to start paying fees to.\n    function updateMintAuthority(address _nextMintAuthority) public onlyOwner {\n        mintAuthority = _nextMintAuthority;\n    }\n\n    /// @notice Allow the owner to update the minimum shiftOut amount.\n    ///\n    /// @param _minShiftOutAmount The new min shiftOut amount.\n    function updateMinimumShiftOutAmount(uint256 _minShiftOutAmount) public onlyOwner {\n        minShiftAmount = _minShiftOutAmount;\n    }\n\n    /// @notice Allow the owner to update the fee recipient.\n    ///\n    /// @param _nextFeeRecipient The address to start paying fees to.\n    function updateFeeRecipient(address _nextFeeRecipient) public onlyOwner {\n        // ShiftIn and ShiftOut will fail if the feeRecipient is 0x0\n        require(_nextFeeRecipient != address(0x0), \"Shifter: fee recipient cannot be 0x0\");\n\n        feeRecipient = _nextFeeRecipient;\n    }\n\n    /// @notice Allow the owner to update the shiftIn fee.\n    ///\n    /// @param _nextFee The new fee for minting and burning.\n    function updateShiftInFee(uint16 _nextFee) public onlyOwner {\n        shiftInFee = _nextFee;\n    }\n\n    /// @notice Allow the owner to update the shiftOut fee.\n    ///\n    /// @param _nextFee The new fee for minting and burning.\n    function updateShiftOutFee(uint16 _nextFee) public onlyOwner {\n        shiftOutFee = _nextFee;\n    }\n\n    /// @notice shiftIn mints tokens after taking a fee for the `_feeRecipient`.\n    ///\n    /// @param _pHash (payload hash) The hash of the payload associated with the\n    ///        shift.\n    /// @param _amount The amount of the token being shifted int, in its\n    ///        smallest value. (e.g. satoshis for BTC)\n    /// @param _nHash (nonce hash) The hash of the nonce, amount and pHash.\n    /// @param _sig The signature of the hash of the following values:\n    ///        (pHash, amount, msg.sender, nHash), signed by the mintAuthority.\n    function shiftIn(bytes32 _pHash, uint256 _amount, bytes32 _nHash, bytes memory _sig) public returns (uint256) {\n        // Verify signature\n        bytes32 signedMessageHash = hashForSignature(_pHash, _amount, msg.sender, _nHash);\n        require(status[signedMessageHash] == false, \"Shifter: nonce hash already spent\");\n        if (!verifySignature(signedMessageHash, _sig)) {\n            // Return a detailed string containing the hash and recovered\n            // signer. This is a costly operation but is only run in the revert\n            // branch.\n            revert(\n                String.add4(\n                    \"Shifter: invalid signature - hash: \",\n                    String.fromBytes32(signedMessageHash),\n                    \", signer: \",\n                    String.fromAddress(ECDSA.recover(signedMessageHash, _sig))\n                )\n            );\n        }\n        status[signedMessageHash] = true;\n\n        // Mint `amount - fee` for the recipient and mint `fee` for the minter\n        uint256 absoluteFee = (_amount.mul(shiftInFee)).div(BIPS_DENOMINATOR);\n        uint256 receivedAmount = _amount.sub(absoluteFee);\n        token.mint(msg.sender, receivedAmount);\n        token.mint(feeRecipient, absoluteFee);\n\n        // Emit a log with a unique shift ID\n        emit LogShiftIn(msg.sender, receivedAmount, nextShiftID, signedMessageHash);\n        nextShiftID += 1;\n\n        return receivedAmount;\n    }\n\n    /// @notice shiftOut burns tokens after taking a fee for the `_feeRecipient`.\n    ///\n    /// @param _to The address to receive the unshifted digital asset. The\n    ///        format of this address should be of the destination chain.\n    ///        For example, when shifting out to Bitcoin, _to should be a\n    ///        Bitcoin address.\n    /// @param _amount The amount of the token being shifted out, in its\n    ///        smallest value. (e.g. satoshis for BTC)\n    function shiftOut(bytes memory _to, uint256 _amount) public returns (uint256) {\n        // The recipient must not be empty. Better validation is possible,\n        // but would need to be customized for each destination ledger.\n        require(_to.length != 0, \"Shifter: to address is empty\");\n        require(_amount >= minShiftAmount, \"Shifter: amount is less than the minimum shiftOut amount\");\n\n        // Burn full amount and mint fee\n        uint256 absoluteFee = (_amount.mul(shiftOutFee)).div(BIPS_DENOMINATOR);\n        token.burn(msg.sender, _amount);\n        token.mint(feeRecipient, absoluteFee);\n\n        // Emit a log with a unique shift ID\n        uint256 receivedValue = _amount.sub(absoluteFee);\n        emit LogShiftOut(_to, receivedValue, nextShiftID, _to);\n        nextShiftID += 1;\n\n        return receivedValue;\n    }\n\n    /// @notice verifySignature checks the the provided signature matches the provided\n    /// parameters.\n    function verifySignature(bytes32 _signedMessageHash, bytes memory _sig) public view returns (bool) {\n        return mintAuthority == ECDSA.recover(_signedMessageHash, _sig);\n    }\n\n    /// @notice hashForSignature hashes the parameters so that they can be signed.\n    function hashForSignature(bytes32 _pHash, uint256 _amount, address _to, bytes32 _nHash) public view returns (bytes32) {\n        return keccak256(abi.encode(_pHash, _amount, address(token), _to, _nHash));\n    }\n}\n\n/// @dev The following are not necessary for deploying BTCShifter or ZECShifter\n/// contracts, but are used to track deployments.\ncontract BTCShifter is Shifter {\n    constructor(ERC20Shifted _token, address _feeRecipient, address _mintAuthority, uint16 _shiftInFee, uint16 _shiftOutFee, uint256 _minShiftOutAmount)\n        Shifter(_token, _feeRecipient, _mintAuthority, _shiftInFee, _shiftOutFee, _minShiftOutAmount) public {\n        }\n}\n\ncontract ZECShifter is Shifter {\n    constructor(ERC20Shifted _token, address _feeRecipient, address _mintAuthority, uint16 _shiftInFee, uint16 _shiftOutFee, uint256 _minShiftOutAmount)\n        Shifter(_token, _feeRecipient, _mintAuthority, _shiftInFee, _shiftOutFee, _minShiftOutAmount) public {\n        }\n}\n\ncontract BCHShifter is Shifter {\n    constructor(ERC20Shifted _token, address _feeRecipient, address _mintAuthority, uint16 _shiftInFee, uint16 _shiftOutFee, uint256 _minShiftOutAmount)\n        Shifter(_token, _feeRecipient, _mintAuthority, _shiftInFee, _shiftOutFee, _minShiftOutAmount) public {\n        }\n}",
  "sourcePath": "darknode-sol/contracts/Shifter/Shifter.sol",
  "compiler": {
    "name": "solc",
    "version": "0.5.12+commit.7709ece9.Emscripten.clang"
  },
  "schemaVersion": "3.0.16",
  "updatedAt": "2019-10-31T03:45:41.731Z",
  "devdoc": {
    "methods": {
      "claimOwnership()": {
        "details": "Allows the pendingOwner address to finalize the transfer."
      },
      "isOwner()": {
        "return": "true if `msg.sender` is the owner of the contract."
      },
      "owner()": {
        "return": "the address of the owner."
      },
      "renounceOwnership()": {
        "details": "Allows the current owner to relinquish control of the contract. It will not be possible to call the functions with the `onlyOwner` modifier anymore."
      },
      "shiftIn(bytes32,uint256,bytes32,bytes)": {
        "params": {
          "_amount": "The amount of the token being shifted int, in its        smallest value. (e.g. satoshis for BTC)",
          "_nHash": "(nonce hash) The hash of the nonce, amount and pHash.",
          "_pHash": "(payload hash) The hash of the payload associated with the        shift.",
          "_sig": "The signature of the hash of the following values:        (pHash, amount, msg.sender, nHash), signed by the mintAuthority."
        }
      },
      "shiftOut(bytes,uint256)": {
        "params": {
          "_amount": "The amount of the token being shifted out, in its        smallest value. (e.g. satoshis for BTC)",
          "_to": "The address to receive the unshifted digital asset. The        format of this address should be of the destination chain.        For example, when shifting out to Bitcoin, _to should be a        Bitcoin address."
        }
      },
      "transferOwnership(address)": {
        "details": "Allows the current owner to set the pendingOwner address.",
        "params": {
          "newOwner": "The address to transfer ownership to."
        }
      },
      "updateFeeRecipient(address)": {
        "params": {
          "_nextFeeRecipient": "The address to start paying fees to."
        }
      },
      "updateMinimumShiftOutAmount(uint256)": {
        "params": {
          "_minShiftOutAmount": "The new min shiftOut amount."
        }
      },
      "updateMintAuthority(address)": {
        "params": {
          "_nextMintAuthority": "The address to start paying fees to."
        }
      },
      "updateShiftInFee(uint16)": {
        "params": {
          "_nextFee": "The new fee for minting and burning."
        }
      },
      "updateShiftOutFee(uint16)": {
        "params": {
          "_nextFee": "The new fee for minting and burning."
        }
      }
    }
  },
  "userdoc": {
    "methods": {
      "claimTokenOwnership()": {
        "notice": "Claims ownership of the token passed in to the constructor. `transferStoreOwnership` must have previously been called. Anyone can call this function."
      },
      "hashForSignature(bytes32,uint256,address,bytes32)": {
        "notice": "hashForSignature hashes the parameters so that they can be signed."
      },
      "recoverTokens(address)": {
        "notice": "Allow the owner of the contract to recover funds accidentally sent to the contract. To withdraw ETH, the token should be set to `0x0`."
      },
      "renounceOwnership()": {
        "notice": "Renouncing ownership will leave the contract without an owner, thereby removing any functionality that is only available to the owner."
      },
      "shiftIn(bytes32,uint256,bytes32,bytes)": {
        "notice": "shiftIn mints tokens after taking a fee for the `_feeRecipient`. "
      },
      "shiftOut(bytes,uint256)": {
        "notice": "shiftOut burns tokens after taking a fee for the `_feeRecipient`. "
      },
      "transferTokenOwnership(address)": {
        "notice": "Allow the owner to update the owner of the ERC20Shifted token."
      },
      "updateFeeRecipient(address)": {
        "notice": "Allow the owner to update the fee recipient. "
      },
      "updateMinimumShiftOutAmount(uint256)": {
        "notice": "Allow the owner to update the minimum shiftOut amount. "
      },
      "updateMintAuthority(address)": {
        "notice": "Allow the owner to update the fee recipient. "
      },
      "updateShiftInFee(uint16)": {
        "notice": "Allow the owner to update the shiftIn fee. "
      },
      "updateShiftOutFee(uint16)": {
        "notice": "Allow the owner to update the shiftOut fee. "
      },
      "verifySignature(bytes32,bytes)": {
        "notice": "verifySignature checks the the provided signature matches the provided parameters."
      }
    }
  }
}