{
  "contractName": "DEX",
  "abi": [
    {
      "inputs": [
        {
          "internalType": "address",
          "name": "_baseToken",
          "type": "address"
        }
      ],
      "payable": false,
      "stateMutability": "nonpayable",
      "type": "constructor"
    },
    {
      "anonymous": false,
      "inputs": [
        {
          "indexed": false,
          "internalType": "address",
          "name": "_src",
          "type": "address"
        },
        {
          "indexed": false,
          "internalType": "address",
          "name": "_dst",
          "type": "address"
        },
        {
          "indexed": false,
          "internalType": "uint256",
          "name": "_sendAmount",
          "type": "uint256"
        },
        {
          "indexed": false,
          "internalType": "uint256",
          "name": "_recvAmount",
          "type": "uint256"
        }
      ],
      "name": "LogTrade",
      "type": "event"
    },
    {
      "anonymous": false,
      "inputs": [
        {
          "indexed": true,
          "internalType": "address",
          "name": "previousOwner",
          "type": "address"
        },
        {
          "indexed": true,
          "internalType": "address",
          "name": "newOwner",
          "type": "address"
        }
      ],
      "name": "OwnershipTransferred",
      "type": "event"
    },
    {
      "constant": true,
      "inputs": [],
      "name": "baseToken",
      "outputs": [
        {
          "internalType": "address",
          "name": "",
          "type": "address"
        }
      ],
      "payable": false,
      "stateMutability": "view",
      "type": "function"
    },
    {
      "constant": false,
      "inputs": [],
      "name": "claimOwnership",
      "outputs": [],
      "payable": false,
      "stateMutability": "nonpayable",
      "type": "function"
    },
    {
      "constant": true,
      "inputs": [],
      "name": "isOwner",
      "outputs": [
        {
          "internalType": "bool",
          "name": "",
          "type": "bool"
        }
      ],
      "payable": false,
      "stateMutability": "view",
      "type": "function"
    },
    {
      "constant": true,
      "inputs": [],
      "name": "owner",
      "outputs": [
        {
          "internalType": "address",
          "name": "",
          "type": "address"
        }
      ],
      "payable": false,
      "stateMutability": "view",
      "type": "function"
    },
    {
      "constant": false,
      "inputs": [],
      "name": "renounceOwnership",
      "outputs": [],
      "payable": false,
      "stateMutability": "nonpayable",
      "type": "function"
    },
    {
      "constant": true,
      "inputs": [
        {
          "internalType": "address",
          "name": "",
          "type": "address"
        }
      ],
      "name": "reserves",
      "outputs": [
        {
          "internalType": "contract DEXReserve",
          "name": "",
          "type": "address"
        }
      ],
      "payable": false,
      "stateMutability": "view",
      "type": "function"
    },
    {
      "constant": false,
      "inputs": [
        {
          "internalType": "address",
          "name": "newOwner",
          "type": "address"
        }
      ],
      "name": "transferOwnership",
      "outputs": [],
      "payable": false,
      "stateMutability": "nonpayable",
      "type": "function"
    },
    {
      "constant": false,
      "inputs": [
        {
          "internalType": "address",
          "name": "_token",
          "type": "address"
        }
      ],
      "name": "recoverTokens",
      "outputs": [],
      "payable": false,
      "stateMutability": "nonpayable",
      "type": "function"
    },
    {
      "constant": false,
      "inputs": [
        {
          "internalType": "address",
          "name": "_erc20",
          "type": "address"
        },
        {
          "internalType": "contract DEXReserve",
          "name": "_reserve",
          "type": "address"
        }
      ],
      "name": "registerReserve",
      "outputs": [],
      "payable": false,
      "stateMutability": "nonpayable",
      "type": "function"
    },
    {
      "constant": false,
      "inputs": [
        {
          "internalType": "address",
          "name": "_to",
          "type": "address"
        },
        {
          "internalType": "address",
          "name": "_src",
          "type": "address"
        },
        {
          "internalType": "address",
          "name": "_dst",
          "type": "address"
        },
        {
          "internalType": "uint256",
          "name": "_sendAmount",
          "type": "uint256"
        }
      ],
      "name": "trade",
      "outputs": [
        {
          "internalType": "uint256",
          "name": "",
          "type": "uint256"
        }
      ],
      "payable": false,
      "stateMutability": "nonpayable",
      "type": "function"
    },
    {
      "constant": true,
      "inputs": [
        {
          "internalType": "address",
          "name": "_src",
          "type": "address"
        },
        {
          "internalType": "address",
          "name": "_dst",
          "type": "address"
        },
        {
          "internalType": "uint256",
          "name": "_sendAmount",
          "type": "uint256"
        }
      ],
      "name": "calculateReceiveAmount",
      "outputs": [
        {
          "internalType": "uint256",
          "name": "",
          "type": "uint256"
        }
      ],
      "payable": false,
      "stateMutability": "view",
      "type": "function"
    }
  ],
  "bytecode": "0x608060405234801561001057600080fd5b50604051610e4f380380610e4f8339818101604052602081101561003357600080fd5b5051600180546001600160a01b0319163317908190556040516001600160a01b0391909116906000907f8be0079c531659141344cd1fd0a4f28419497f9722a3daafe3b4186f6b6457e0908290a3600380546001600160a01b0319166001600160a01b0392909216919091179055610d9f806100b06000396000f3fe608060405234801561001057600080fd5b50600436106100a95760003560e01c80638f32d59b116100715780638f32d59b14610152578063c55dae631461016e578063d4eec72914610176578063d66bd524146101a4578063dca751a6146101ca578063f2fde38b14610206576100a9565b806316114acd146100ae5780634e71e0c8146100d65780635fb31d77146100de578063715018a6146101265780638da5cb5b1461012e575b600080fd5b6100d4600480360360208110156100c457600080fd5b50356001600160a01b031661022c565b005b6100d46103ac565b610114600480360360608110156100f457600080fd5b506001600160a01b0381358116916020810135909116906040013561045a565b60408051918252519081900360200190f35b6100d4610675565b610136610702565b604080516001600160a01b039092168252519081900360200190f35b61015a610711565b604080519115158252519081900360200190f35b610136610722565b6100d46004803603604081101561018c57600080fd5b506001600160a01b0381358116916020013516610731565b610136600480360360208110156101ba57600080fd5b50356001600160a01b031661080f565b610114600480360360808110156101e057600080fd5b506001600160a01b0381358116916020810135821691604082013516906060013561082a565b6100d46004803603602081101561021c57600080fd5b50356001600160a01b0316610cb9565b610234610711565b61026f5760405162461bcd60e51b8152600401808060200182810382526022815260200180610d1f6022913960400191505060405180910390fd5b6001600160a01b0381166102b0576040513390303180156108fc02916000818181858888f193505050501580156102aa573d6000803e3d6000fd5b506103a9565b604080516370a0823160e01b815230600482015290516001600160a01b0383169163a9059cbb91339184916370a0823191602480820192602092909190829003018186803b15801561030157600080fd5b505afa158015610315573d6000803e3d6000fd5b505050506040513d602081101561032b57600080fd5b5051604080516001600160e01b031960e086901b1681526001600160a01b03909316600484015260248301919091525160448083019260209291908290030181600087803b15801561037c57600080fd5b505af1158015610390573d6000803e3d6000fd5b505050506040513d60208110156103a657600080fd5b50505b50565b6000546001600160a01b031633146103f55760405162461bcd60e51b815260040180806020018281038252602a815260200180610d41602a913960400191505060405180910390fd5b600080546001546040516001600160a01b039283169392909116917f8be0079c531659141344cd1fd0a4f28419497f9722a3daafe3b4186f6b6457e091a360008054600180546001600160a01b03199081166001600160a01b03841617909155169055565b6003546000906001600160a01b03858116911614156104fe576001600160a01b038084166000908152600260209081526040918290205482516368f4463960e11b815260048101879052925193169263d1e88c72926024808201939291829003018186803b1580156104cb57600080fd5b505afa1580156104df573d6000803e3d6000fd5b505050506040513d60208110156104f557600080fd5b5051905061066e565b6003546001600160a01b038481169116141561056c576001600160a01b0380851660009081526002602090815260409182902054825163b4d5fa7f60e01b815260048101879052925193169263b4d5fa7f926024808201939291829003018186803b1580156104cb57600080fd5b6001600160a01b0380841660009081526002602090815260408083205488851684529281902054815163b4d5fa7f60e01b81526004810188905291519385169463d1e88c729491169263b4d5fa7f9260248082019391829003018186803b1580156105d657600080fd5b505afa1580156105ea573d6000803e3d6000fd5b505050506040513d602081101561060057600080fd5b5051604080516001600160e01b031960e085901b1681526004810192909252516024808301926020929190829003018186803b15801561063f57600080fd5b505afa158015610653573d6000803e3d6000fd5b505050506040513d602081101561066957600080fd5b505190505b9392505050565b61067d610711565b6106b85760405162461bcd60e51b8152600401808060200182810382526022815260200180610d1f6022913960400191505060405180910390fd5b6001546040516000916001600160a01b0316907f8be0079c531659141344cd1fd0a4f28419497f9722a3daafe3b4186f6b6457e0908390a3600180546001600160a01b0319169055565b6001546001600160a01b031690565b6001546001600160a01b0316331490565b6003546001600160a01b031681565b610739610711565b6107745760405162461bcd60e51b8152600401808060200182810382526022815260200180610d1f6022913960400191505060405180910390fd5b6001600160a01b0382811660009081526002602052604090205416156107e1576040805162461bcd60e51b815260206004820181905260248201527f746f6b656e207265736572766520616c72656164792072656769737465726564604482015290519081900360640190fd5b6001600160a01b03918216600090815260026020526040902080546001600160a01b03191691909216179055565b6002602052600090815260409020546001600160a01b031681565b60035460009081906001600160a01b038681169116141561093e576001600160a01b03848116600090815260026020526040902054166108a5576040805162461bcd60e51b81526020600482015260116024820152703ab739bab83837b93a32b2103a37b5b2b760791b604482015290519081900360640190fd5b6001600160a01b038085166000908152600260209081526040808320548151630a9f337360e11b81528b8616600482015233602482015260448101899052915194169363153e66e693606480840194938390030190829087803b15801561090b57600080fd5b505af115801561091f573d6000803e3d6000fd5b505050506040513d602081101561093557600080fd5b50519050610c5f565b6003546001600160a01b0385811691161415610a1a576001600160a01b03858116600090815260026020526040902054166109b4576040805162461bcd60e51b81526020600482015260116024820152703ab739bab83837b93a32b2103a37b5b2b760791b604482015290519081900360640190fd5b6001600160a01b038086166000908152600260209081526040808320548151636571385b60e11b81528b8616600482015233602482015260448101899052915194169363cae270b693606480840194938390030190829087803b15801561090b57600080fd5b6001600160a01b038581166000908152600260205260409020541615801590610a5c57506001600160a01b038481166000908152600260205260409020541615155b610aa1576040805162461bcd60e51b81526020600482015260116024820152703ab739bab83837b93a32b2103a37b5b2b760791b604482015290519081900360640190fd5b6001600160a01b038086166000908152600260209081526040808320548151636571385b60e11b81523060048201523360248201526044810189905291519394169263cae270b69260648084019391929182900301818787803b158015610b0757600080fd5b505af1158015610b1b573d6000803e3d6000fd5b505050506040513d6020811015610b3157600080fd5b50516003546001600160a01b03878116600090815260026020908152604080832054815163095ea7b360e01b81529085166004820152602481018790529051959650929093169363095ea7b3936044808501949193918390030190829087803b158015610b9d57600080fd5b505af1158015610bb1573d6000803e3d6000fd5b505050506040513d6020811015610bc757600080fd5b50506001600160a01b038086166000908152600260209081526040808320548151630a9f337360e11b81528c8616600482015230602482015260448101879052915194169363153e66e693606480840194938390030190829087803b158015610c2f57600080fd5b505af1158015610c43573d6000803e3d6000fd5b505050506040513d6020811015610c5957600080fd5b50519150505b604080516001600160a01b038088168252861660208201528082018590526060810183905290517f8d10c7a140b316d7362354a44023c657a9c436616f21481cac1cb594aa3054589181900360800190a195945050505050565b610cc1610711565b610cfc5760405162461bcd60e51b8152600401808060200182810382526022815260200180610d1f6022913960400191505060405180910390fd5b600080546001600160a01b0319166001600160a01b039290921691909117905556fe436c61696d61626c653a2063616c6c6572206973206e6f7420746865206f776e6572436c61696d61626c653a2063616c6c6572206973206e6f74207468652070656e64696e67206f776e6572a265627a7a723158205a500c74d6351f6ea6d6ebad7caeb0809f97bfef2e71a2f711cf8d95a02e38bc64736f6c634300050c0032",
  "source": "pragma solidity ^0.5.12;\n\nimport \"darknode-sol/contracts/libraries/Claimable.sol\";\nimport \"./DEXReserve.sol\";\nimport \"openzeppelin-solidity/contracts/token/ERC20/ERC20.sol\";\nimport \"openzeppelin-solidity/contracts/ownership/Ownable.sol\";\n\n/// @title DEX\n/// @notice The DEX contract stores the reserves for each token pair and\n/// provides functions for interacting with them:\n///   1) the view-function `calculateReceiveAmount` for calculating how much\n///      the user will receive in exchange for their tokens\n///   2) the function `trade` for executing a swap. If one of the tokens is the\n///      base token, this will only talk to one reserve. If neither of the\n///      tokens are, then the trade will settle across two reserves.\n///\n/// The DEX is ownable, allowing a DEX operator to register new reserves.\n/// Once a reserve has been registered, it can't be updated.\ncontract DEX is Claimable {\n    mapping (address=>DEXReserve) public reserves;\n    address public baseToken;\n\n    event LogTrade(address _src, address _dst, uint256 _sendAmount, uint256 _recvAmount);\n\n    /// @param _baseToken The reserves must all have a common base token.\n    constructor(address _baseToken) public {\n        baseToken = _baseToken;\n    }\n\n    /// @notice Allow the owner to recover funds accidentally sent to the\n    /// contract. To withdraw ETH, the token should be set to `0x0`.\n    function recoverTokens(address _token) external onlyOwner {\n        if (_token == address(0x0)) {\n            msg.sender.transfer(address(this).balance);\n        } else {\n            ERC20(_token).transfer(msg.sender, ERC20(_token).balanceOf(address(this)));\n        }\n    }\n\n    /// @notice The DEX operator is able to register new reserves.\n    /// @param _erc20 The token that can be traded against the base token.\n    /// @param _reserve The address of the reserve contract. It must follow the\n    ///        DEXReserve interface.\n    function registerReserve(address _erc20, DEXReserve _reserve) external onlyOwner {\n        require(reserves[_erc20] == DEXReserve(0x0), \"token reserve already registered\");\n        reserves[_erc20] = _reserve;\n    }\n\n    /// @notice The main trade function to execute swaps.\n    /// @param _to The address at which the DST tokens should be sent to.\n    /// @param _src The address of the token being spent.\n    /// @param _dst The address of the token being received.\n    /// @param _sendAmount The amount of the source token being traded.\n    function trade(address _to, address _src, address _dst, uint256 _sendAmount) public returns (uint256) {\n        uint256 recvAmount;\n        if (_src == baseToken) {\n            require(reserves[_dst] != DEXReserve(0x0), \"unsupported token\");\n            recvAmount = reserves[_dst].buy(_to, msg.sender, _sendAmount);\n        } else if (_dst == baseToken) {\n            require(reserves[_src] != DEXReserve(0x0), \"unsupported token\");\n            recvAmount = reserves[_src].sell(_to, msg.sender, _sendAmount);\n        } else {\n            require(reserves[_src] != DEXReserve(0x0) && reserves[_dst] != DEXReserve(0x0), \"unsupported token\");\n            uint256 intermediteAmount = reserves[_src].sell(address(this), msg.sender, _sendAmount);\n            ERC20(baseToken).approve(address(reserves[_dst]), intermediteAmount);\n            recvAmount = reserves[_dst].buy(_to, address(this), intermediteAmount);\n        }\n        emit LogTrade(_src, _dst, _sendAmount, recvAmount);\n        return recvAmount;\n    }\n\n    /// @notice A read-only function to estimate the amount of DST tokens the\n    /// trader would receive for the send amount.\n    /// @param _src The address of the token being spent.\n    /// @param _dst The address of the token being received.\n    /// @param _sendAmount The amount of the source token being traded.\n    function calculateReceiveAmount(address _src, address _dst, uint256 _sendAmount) public view returns (uint256) {\n        if (_src == baseToken) {\n            return reserves[_dst].calculateBuyRcvAmt(_sendAmount);\n        }\n        if (_dst == baseToken) {\n            return reserves[_src].calculateSellRcvAmt(_sendAmount);\n        }\n        return reserves[_dst].calculateBuyRcvAmt(reserves[_src].calculateSellRcvAmt(_sendAmount));\n    }\n}",
  "sourcePath": "dex-demo/ethereum-contracts/contracts/DEX.sol",
  "compiler": {
    "name": "solc",
    "version": "0.5.12+commit.7709ece9.Emscripten.clang"
  },
  "schemaVersion": "3.0.16",
  "updatedAt": "2019-10-31T03:50:41.153Z",
  "devdoc": {
    "methods": {
      "calculateReceiveAmount(address,address,uint256)": {
        "params": {
          "_dst": "The address of the token being received.",
          "_sendAmount": "The amount of the source token being traded.",
          "_src": "The address of the token being spent."
        }
      },
      "claimOwnership()": {
        "details": "Allows the pendingOwner address to finalize the transfer."
      },
      "constructor": {
        "params": {
          "_baseToken": "The reserves must all have a common base token."
        }
      },
      "isOwner()": {
        "return": "true if `msg.sender` is the owner of the contract."
      },
      "owner()": {
        "return": "the address of the owner."
      },
      "registerReserve(address,address)": {
        "params": {
          "_erc20": "The token that can be traded against the base token.",
          "_reserve": "The address of the reserve contract. It must follow the        DEXReserve interface."
        }
      },
      "renounceOwnership()": {
        "details": "Allows the current owner to relinquish control of the contract. It will not be possible to call the functions with the `onlyOwner` modifier anymore."
      },
      "trade(address,address,address,uint256)": {
        "params": {
          "_dst": "The address of the token being received.",
          "_sendAmount": "The amount of the source token being traded.",
          "_src": "The address of the token being spent.",
          "_to": "The address at which the DST tokens should be sent to."
        }
      },
      "transferOwnership(address)": {
        "details": "Allows the current owner to set the pendingOwner address.",
        "params": {
          "newOwner": "The address to transfer ownership to."
        }
      }
    },
    "title": "DEX"
  },
  "userdoc": {
    "methods": {
      "calculateReceiveAmount(address,address,uint256)": {
        "notice": "A read-only function to estimate the amount of DST tokens the trader would receive for the send amount."
      },
      "recoverTokens(address)": {
        "notice": "Allow the owner to recover funds accidentally sent to the contract. To withdraw ETH, the token should be set to `0x0`."
      },
      "registerReserve(address,address)": {
        "notice": "The DEX operator is able to register new reserves."
      },
      "renounceOwnership()": {
        "notice": "Renouncing ownership will leave the contract without an owner, thereby removing any functionality that is only available to the owner."
      },
      "trade(address,address,address,uint256)": {
        "notice": "The main trade function to execute swaps."
      }
    },
    "notice": "The DEX contract stores the reserves for each token pair and provides functions for interacting with them:   1) the view-function `calculateReceiveAmount` for calculating how much      the user will receive in exchange for their tokens   2) the function `trade` for executing a swap. If one of the tokens is the      base token, this will only talk to one reserve. If neither of the      tokens are, then the trade will settle across two reserves.  /// The DEX is ownable, allowing a DEX operator to register new reserves. Once a reserve has been registered, it can't be updated."
  }
}