{
  "contractName": "DEXAdapter",
  "abi": [
    {
      "inputs": [
        {
          "internalType": "contract DEX",
          "name": "_dex",
          "type": "address"
        },
        {
          "internalType": "contract ShifterRegistry",
          "name": "_shifterRegistry",
          "type": "address"
        }
      ],
      "payable": false,
      "stateMutability": "nonpayable",
      "type": "constructor"
    },
    {
      "anonymous": false,
      "inputs": [
        {
          "indexed": false,
          "internalType": "address",
          "name": "src",
          "type": "address"
        },
        {
          "indexed": false,
          "internalType": "uint256",
          "name": "amount",
          "type": "uint256"
        }
      ],
      "name": "LogTransferIn",
      "type": "event"
    },
    {
      "anonymous": false,
      "inputs": [
        {
          "indexed": false,
          "internalType": "address",
          "name": "dst",
          "type": "address"
        },
        {
          "indexed": false,
          "internalType": "uint256",
          "name": "amount",
          "type": "uint256"
        }
      ],
      "name": "LogTransferOut",
      "type": "event"
    },
    {
      "constant": true,
      "inputs": [],
      "name": "dex",
      "outputs": [
        {
          "internalType": "contract DEX",
          "name": "",
          "type": "address"
        }
      ],
      "payable": false,
      "stateMutability": "view",
      "type": "function"
    },
    {
      "constant": true,
      "inputs": [],
      "name": "shifterRegistry",
      "outputs": [
        {
          "internalType": "contract ShifterRegistry",
          "name": "",
          "type": "address"
        }
      ],
      "payable": false,
      "stateMutability": "view",
      "type": "function"
    },
    {
      "constant": false,
      "inputs": [
        {
          "internalType": "address",
          "name": "_token",
          "type": "address"
        }
      ],
      "name": "recoverTokens",
      "outputs": [],
      "payable": false,
      "stateMutability": "nonpayable",
      "type": "function"
    },
    {
      "constant": false,
      "inputs": [
        {
          "internalType": "address",
          "name": "_src",
          "type": "address"
        },
        {
          "internalType": "address",
          "name": "_dst",
          "type": "address"
        },
        {
          "internalType": "uint256",
          "name": "_minDstAmt",
          "type": "uint256"
        },
        {
          "internalType": "bytes",
          "name": "_to",
          "type": "bytes"
        },
        {
          "internalType": "uint256",
          "name": "_refundBN",
          "type": "uint256"
        },
        {
          "internalType": "bytes",
          "name": "_refundAddress",
          "type": "bytes"
        },
        {
          "internalType": "uint256",
          "name": "_amount",
          "type": "uint256"
        },
        {
          "internalType": "bytes32",
          "name": "_nHash",
          "type": "bytes32"
        },
        {
          "internalType": "bytes",
          "name": "_sig",
          "type": "bytes"
        }
      ],
      "name": "trade",
      "outputs": [],
      "payable": false,
      "stateMutability": "nonpayable",
      "type": "function"
    },
    {
      "constant": true,
      "inputs": [
        {
          "internalType": "address",
          "name": "_src",
          "type": "address"
        },
        {
          "internalType": "address",
          "name": "_dst",
          "type": "address"
        },
        {
          "internalType": "uint256",
          "name": "_minDstAmt",
          "type": "uint256"
        },
        {
          "internalType": "bytes",
          "name": "_to",
          "type": "bytes"
        },
        {
          "internalType": "uint256",
          "name": "_refundBN",
          "type": "uint256"
        },
        {
          "internalType": "bytes",
          "name": "_refundAddress",
          "type": "bytes"
        }
      ],
      "name": "hashTradePayload",
      "outputs": [
        {
          "internalType": "bytes32",
          "name": "",
          "type": "bytes32"
        }
      ],
      "payable": false,
      "stateMutability": "pure",
      "type": "function"
    },
    {
      "constant": true,
      "inputs": [
        {
          "internalType": "address",
          "name": "_liquidityProvider",
          "type": "address"
        },
        {
          "internalType": "uint256",
          "name": "_maxBaseToken",
          "type": "uint256"
        },
        {
          "internalType": "address",
          "name": "_token",
          "type": "address"
        },
        {
          "internalType": "uint256",
          "name": "_refundBN",
          "type": "uint256"
        },
        {
          "internalType": "bytes",
          "name": "_refundAddress",
          "type": "bytes"
        }
      ],
      "name": "hashLiquidityPayload",
      "outputs": [
        {
          "internalType": "bytes32",
          "name": "",
          "type": "bytes32"
        }
      ],
      "payable": false,
      "stateMutability": "pure",
      "type": "function"
    },
    {
      "constant": false,
      "inputs": [
        {
          "internalType": "address",
          "name": "_liquidityProvider",
          "type": "address"
        },
        {
          "internalType": "uint256",
          "name": "_maxBaseToken",
          "type": "uint256"
        },
        {
          "internalType": "address",
          "name": "_token",
          "type": "address"
        },
        {
          "internalType": "uint256",
          "name": "_deadline",
          "type": "uint256"
        },
        {
          "internalType": "bytes",
          "name": "_refundAddress",
          "type": "bytes"
        },
        {
          "internalType": "uint256",
          "name": "_amount",
          "type": "uint256"
        },
        {
          "internalType": "bytes32",
          "name": "_nHash",
          "type": "bytes32"
        },
        {
          "internalType": "bytes",
          "name": "_sig",
          "type": "bytes"
        }
      ],
      "name": "addLiquidity",
      "outputs": [
        {
          "internalType": "uint256",
          "name": "",
          "type": "uint256"
        }
      ],
      "payable": false,
      "stateMutability": "nonpayable",
      "type": "function"
    },
    {
      "constant": false,
      "inputs": [
        {
          "internalType": "address",
          "name": "_token",
          "type": "address"
        },
        {
          "internalType": "uint256",
          "name": "_liquidity",
          "type": "uint256"
        },
        {
          "internalType": "bytes",
          "name": "_tokenAddress",
          "type": "bytes"
        }
      ],
      "name": "removeLiquidity",
      "outputs": [],
      "payable": false,
      "stateMutability": "nonpayable",
      "type": "function"
    },
    {
      "constant": true,
      "inputs": [
        {
          "internalType": "address",
          "name": "_src",
          "type": "address"
        },
        {
          "internalType": "address",
          "name": "_dst",
          "type": "address"
        },
        {
          "internalType": "uint256",
          "name": "_sendAmount",
          "type": "uint256"
        }
      ],
      "name": "calculateReceiveAmount",
      "outputs": [
        {
          "internalType": "uint256",
          "name": "",
          "type": "uint256"
        }
      ],
      "payable": false,
      "stateMutability": "view",
      "type": "function"
    }
  ],
  "bytecode": "0x608060405234801561001057600080fd5b5060405161245c38038061245c8339818101604052604081101561003357600080fd5b508051602090910151600180546001600160a01b039283166001600160a01b031991821617909155600080549290931691161790556123e5806100776000396000f3fe608060405234801561001057600080fd5b50600436106100935760003560e01c8063692058c211610066578063692058c2146103385780637813e50a1461035c578063863cb94e14610426578063a1f419c9146104a9578063e6a12ca9146105fa57610093565b806316114acd1461009857806333da59af146100c0578063590ba492146101c35780635fb31d7714610302575b600080fd5b6100be600480360360208110156100ae57600080fd5b50356001600160a01b0316610602565b005b6101b160048036036101008110156100d757600080fd5b6001600160a01b0382358116926020810135926040820135909216916060820135919081019060a081016080820135600160201b81111561011757600080fd5b82018360208201111561012957600080fd5b803590602001918460018302840111600160201b8311171561014a57600080fd5b919390928235926020810135929190606081019060400135600160201b81111561017357600080fd5b82018360208201111561018557600080fd5b803590602001918460018302840111600160201b831117156101a657600080fd5b50909250905061073f565b60408051918252519081900360200190f35b6100be60048036036101208110156101da57600080fd5b6001600160a01b03823581169260208101359091169160408201359190810190608081016060820135600160201b81111561021457600080fd5b82018360208201111561022657600080fd5b803590602001918460018302840111600160201b8311171561024757600080fd5b91939092823592604081019060200135600160201b81111561026857600080fd5b82018360208201111561027a57600080fd5b803590602001918460018302840111600160201b8311171561029b57600080fd5b919390928235926020810135929190606081019060400135600160201b8111156102c457600080fd5b8201836020820111156102d657600080fd5b803590602001918460018302840111600160201b831117156102f757600080fd5b509092509050610ddf565b6101b16004803603606081101561031857600080fd5b506001600160a01b03813581169160208101359091169060400135611179565b6103406113de565b604080516001600160a01b039092168252519081900360200190f35b6101b1600480360360a081101561037257600080fd5b6001600160a01b0382358116926020810135926040820135909216916060820135919081019060a081016080820135600160201b8111156103b257600080fd5b8201836020820111156103c457600080fd5b803590602001918460018302840111600160201b831117156103e557600080fd5b91908080601f0160208091040260200160405190810160405280939291908181526020018383808284376000920191909152509295506113ed945050505050565b6100be6004803603606081101561043c57600080fd5b6001600160a01b0382351691602081013591810190606081016040820135600160201b81111561046b57600080fd5b82018360208201111561047d57600080fd5b803590602001918460018302840111600160201b8311171561049e57600080fd5b5090925090506114c8565b6101b1600480360360c08110156104bf57600080fd5b6001600160a01b03823581169260208101359091169160408201359190810190608081016060820135600160201b8111156104f957600080fd5b82018360208201111561050b57600080fd5b803590602001918460018302840111600160201b8311171561052c57600080fd5b91908080601f01602080910402602001604051908101604052809392919081815260200183838082843760009201919091525092958435959094909350604081019250602001359050600160201b81111561058657600080fd5b82018360208201111561059857600080fd5b803590602001918460018302840111600160201b831117156105b957600080fd5b91908080601f016020809104026020016040519081016040528093929190818152602001838380828437600092019190915250929550611860945050505050565b6103406119a2565b6001600160a01b038116610643576040513390303180156108fc02916000818181858888f1935050505015801561063d573d6000803e3d6000fd5b5061073c565b604080516370a0823160e01b815230600482015290516001600160a01b0383169163a9059cbb91339184916370a0823191602480820192602092909190829003018186803b15801561069457600080fd5b505afa1580156106a8573d6000803e3d6000fd5b505050506040513d60208110156106be57600080fd5b5051604080516001600160e01b031960e086901b1681526001600160a01b03909316600484015260248301919091525160448083019260209291908290030181600087803b15801561070f57600080fd5b505af1158015610723573d6000803e3d6000fd5b505050506040513d602081101561073957600080fd5b50505b50565b600080546040805163359af54960e21b81526001600160a01b038c8116600483015291518493929092169163d66bd52491602480820192602092909190829003018186803b15801561079057600080fd5b505afa1580156107a4573d6000803e3d6000fd5b505050506040513d60208110156107ba57600080fd5b505190506001600160a01b03811661080d576040805162461bcd60e51b81526020600482015260116024820152703ab739bab83837b93a32b2103a37b5b2b760791b604482015290519081900360640190fd5b60006108528d8d8d8d8d8d8080601f0160208091040260200160405190810160405280939291908181526020018383808284376000920191909152506113ed92505050565b905089431115610af5576001546040805163028c4f4160e41b81526001600160a01b038e81166004830152915160009392909216916328c4f41091602480820192602092909190829003018186803b1580156108ad57600080fd5b505afa1580156108c1573d6000803e3d6000fd5b505050506040513d60208110156108d757600080fd5b5051604051632ed2876360e21b815260048101848152602482018b9052604482018a9052608060648301908152608483018990526001600160a01b039093169263bb4a1d8c9286928d928d928d928d92909160a401848480828437600081840152601f19601f8201169050808301925050509650505050505050602060405180830381600087803b15801561096b57600080fd5b505af115801561097f573d6000803e3d6000fd5b505050506040513d602081101561099557600080fd5b81019080805190602001909291905050509050600160009054906101000a90046001600160a01b03166001600160a01b03166328c4f4108d6040518263ffffffff1660e01b815260040180826001600160a01b03166001600160a01b0316815260200191505060206040518083038186803b158015610a1357600080fd5b505afa158015610a27573d6000803e3d6000fd5b505050506040513d6020811015610a3d57600080fd5b505160408051638723c37760e01b81526024810184905260048101918252604481018c90526001600160a01b0390921691638723c377918d918d9186918190606401858580828437600081840152601f19601f820116905080830192505050945050505050602060405180830381600087803b158015610abc57600080fd5b505af1158015610ad0573d6000803e3d6000fd5b505050506040513d6020811015610ae657600080fd5b5060009450610dd19350505050565b6000546040805163c55dae6360e01b815290518e926001600160a01b03169163c55dae63916004808301926020929190829003018186803b158015610b3957600080fd5b505afa158015610b4d573d6000803e3d6000fd5b505050506040513d6020811015610b6357600080fd5b81019080805190602001909291905050506001600160a01b031663dd62ed3e8f856040518363ffffffff1660e01b815260040180836001600160a01b03166001600160a01b03168152602001826001600160a01b03166001600160a01b031681526020019250505060206040518083038186803b158015610be357600080fd5b505afa158015610bf7573d6000803e3d6000fd5b505050506040513d6020811015610c0d57600080fd5b50511015610c4c5760405162461bcd60e51b81526004018080602001828103825260218152602001806123666021913960400191505060405180910390fd5b6000610c918c8989858a8a8080601f0160208091040260200160405190810160405280939291908181526020018383808284376000920191909152506119b192505050565b90508b6001600160a01b031663095ea7b384836040518363ffffffff1660e01b815260040180836001600160a01b03166001600160a01b0316815260200182815260200192505050602060405180830381600087803b158015610cf357600080fd5b505af1158015610d07573d6000803e3d6000fd5b505050506040513d6020811015610d1d57600080fd5b810190808051906020019092919050505050826001600160a01b0316631ece366a8f8f848f6040518563ffffffff1660e01b815260040180856001600160a01b03166001600160a01b03168152602001848152602001838152602001828152602001945050505050602060405180830381600087803b158015610d9f57600080fd5b505af1158015610db3573d6000803e3d6000fd5b505050506040513d6020811015610dc957600080fd5b505193505050505b9a9950505050505050505050565b6000610e698d8d8d8d8d8080601f016020809104026020016040519081016040528093929190818152602001838380828437600081840152601f19601f820116905080830192505050505050508c8c8c8080601f01602080910402602001604051908101604052809392919081815260200183838082843760009201919091525061186092505050565b9050874310611087576000600160009054906101000a90046001600160a01b03166001600160a01b03166328c4f4108f6040518263ffffffff1660e01b815260040180826001600160a01b03166001600160a01b0316815260200191505060206040518083038186803b158015610edf57600080fd5b505afa158015610ef3573d6000803e3d6000fd5b505050506040513d6020811015610f0957600080fd5b505190506001600160a01b0381161561108057806001600160a01b031663bb4a1d8c83888888886040518663ffffffff1660e01b815260040180868152602001858152602001848152602001806020018281038252848482818152602001925080828437600081840152601f19601f8201169050808301925050509650505050505050602060405180830381600087803b158015610fa657600080fd5b505af1158015610fba573d6000803e3d6000fd5b505050506040513d6020811015610fd057600080fd5b5051600281905560408051638723c37760e01b81526024810183905260048101918252604481018a90526001600160a01b03841692638723c377928c928c9291908190606401858580828437600081840152601f19601f820116905080830192505050945050505050602060405180830381600087803b15801561105357600080fd5b505af1158015611067573d6000803e3d6000fd5b505050506040513d602081101561107d57600080fd5b50505b505061116b565b6110ca8d86868487878080601f0160208091040260200160405190810160405280939291908181526020018383808284376000920191909152506119b192505050565b6002819055507ff9a8a6f3535e914cfd5fef422f9f604a324554db59d703e57cf12e77139140e38d60025460405180836001600160a01b03166001600160a01b031681526020018281526020019250505060405180910390a16111698d8d8d8d8d8080601f016020809104026020016040519081016040528093929190818152602001838380828437600092019190915250506002549150611b569050565b505b505050505050505050505050565b6001546040805163028c4f4160e41b81526001600160a01b0385811660048301529151600093859385939116916328c4f41091602480820192602092909190829003018186803b1580156111cc57600080fd5b505afa1580156111e0573d6000803e3d6000fd5b505050506040513d60208110156111f657600080fd5b505190506001600160a01b0381161561127a5761127784826001600160a01b031663dfe03d326040518163ffffffff1660e01b815260040160206040518083038186803b15801561124657600080fd5b505afa15801561125a573d6000803e3d6000fd5b505050506040513d602081101561127057600080fd5b50516120ac565b91505b6000805460408051635fb31d7760e01b81526001600160a01b038a8116600483015289811660248301526044820187905291519190921691635fb31d77916064808301926020929190829003018186803b1580156112d757600080fd5b505afa1580156112eb573d6000803e3d6000fd5b505050506040513d602081101561130157600080fd5b50516001546040805163028c4f4160e41b81526001600160a01b038a81166004830152915193945060009391909216916328c4f410916024808301926020929190829003018186803b15801561135657600080fd5b505afa15801561136a573d6000803e3d6000fd5b505050506040513d602081101561138057600080fd5b505190506001600160a01b038116156113d3576113d082826001600160a01b0316639d5d4cd86040518163ffffffff1660e01b815260040160206040518083038186803b15801561124657600080fd5b91505b509695505050505050565b6000546001600160a01b031681565b6000858585858560405160200180866001600160a01b03166001600160a01b03168152602001858152602001846001600160a01b03166001600160a01b0316815260200183815260200180602001828103825283818151815260200191508051906020019080838360005b83811015611470578181015183820152602001611458565b50505050905090810190601f16801561149d5780820380516001836020036101000a031916815260200191505b5096505050505050506040516020818303038152906040528051906020012090505b95945050505050565b600080546040805163359af54960e21b81526001600160a01b0388811660048301529151919092169163d66bd524916024808301926020929190829003018186803b15801561151657600080fd5b505afa15801561152a573d6000803e3d6000fd5b505050506040513d602081101561154057600080fd5b505190506001600160a01b038116611593576040805162461bcd60e51b81526020600482015260116024820152703ab739bab83837b93a32b2103a37b5b2b760791b604482015290519081900360640190fd5b6115ae6001600160a01b03821633308763ffffffff6120b816565b600080826001600160a01b0316639c8f9f23876040518263ffffffff1660e01b8152600401808281526020019150506040805180830381600087803b1580156115f657600080fd5b505af115801561160a573d6000803e3d6000fd5b505050506040513d604081101561162057600080fd5b5080516020918201516040805163c55dae6360e01b815290519295509093506116b492339286926001600160a01b0389169263c55dae6392600480840193829003018186803b15801561167257600080fd5b505afa158015611686573d6000803e3d6000fd5b505050506040513d602081101561169c57600080fd5b50516001600160a01b0316919063ffffffff61211816565b600160009054906101000a90046001600160a01b03166001600160a01b03166328c4f410846001600160a01b031663fc0c546a6040518163ffffffff1660e01b815260040160206040518083038186803b15801561171157600080fd5b505afa158015611725573d6000803e3d6000fd5b505050506040513d602081101561173b57600080fd5b5051604080516001600160e01b031960e085901b1681526001600160a01b039092166004830152516024808301926020929190829003018186803b15801561178257600080fd5b505afa158015611796573d6000803e3d6000fd5b505050506040513d60208110156117ac57600080fd5b505160408051638723c37760e01b81526024810184905260048101918252604481018790526001600160a01b0390921691638723c377918891889186918190606401858580828437600081840152601f19601f820116905080830192505050945050505050602060405180830381600087803b15801561182b57600080fd5b505af115801561183f573d6000803e3d6000fd5b505050506040513d602081101561185557600080fd5b505050505050505050565b600086868686868660405160200180876001600160a01b03166001600160a01b03168152602001866001600160a01b03166001600160a01b031681526020018581526020018060200184815260200180602001838103835286818151815260200191508051906020019080838360005b838110156118e85781810151838201526020016118d0565b50505050905090810190601f1680156119155780820380516001836020036101000a031916815260200191505b50838103825284518152845160209182019186019080838360005b83811015611948578181015183820152602001611930565b50505050905090810190601f1680156119755780820380516001836020036101000a031916815260200191505b50985050505050505050506040516020818303038152906040528051906020012090509695505050505050565b6001546001600160a01b031681565b6001546040805163028c4f4160e41b81526001600160a01b0388811660048301529151600093849316916328c4f410916024808301926020929190829003018186803b158015611a0057600080fd5b505afa158015611a14573d6000803e3d6000fd5b505050506040513d6020811015611a2a57600080fd5b505190506001600160a01b03811615611b3257806001600160a01b031663bb4a1d8c858888876040518563ffffffff1660e01b81526004018085815260200184815260200183815260200180602001828103825283818151815260200191508051906020019080838360005b83811015611aae578181015183820152602001611a96565b50505050905090810190601f168015611adb5780820380516001836020036101000a031916815260200191505b5095505050505050602060405180830381600087803b158015611afd57600080fd5b505af1158015611b11573d6000803e3d6000fd5b505050506040513d6020811015611b2757600080fd5b505191506114bf9050565b611b4d6001600160a01b03881633308963ffffffff6120b816565b859150506114bf565b6001546040805163028c4f4160e41b81526001600160a01b0387811660048301529151600093849384939116916328c4f41091602480820192602092909190829003018186803b158015611ba957600080fd5b505afa158015611bbd573d6000803e3d6000fd5b505050506040513d6020811015611bd357600080fd5b505190506001600160a01b03811615611bee57309150611bfa565b611bf78561216a565b91505b6000809054906101000a90046001600160a01b03166001600160a01b031663c55dae636040518163ffffffff1660e01b815260040160206040518083038186803b158015611c4757600080fd5b505afa158015611c5b573d6000803e3d6000fd5b505050506040513d6020811015611c7157600080fd5b50516001600160a01b0389811691161415611d86576000546040805163359af54960e21b81526001600160a01b038a811660048301529151828c169363095ea7b393169163d66bd524916024808301926020929190829003018186803b158015611cda57600080fd5b505afa158015611cee573d6000803e3d6000fd5b505050506040513d6020811015611d0457600080fd5b5051604080516001600160e01b031960e085901b1681526001600160a01b039092166004830152602482018890525160448083019260209291908290030181600087803b158015611d5457600080fd5b505af1158015611d68573d6000803e3d6000fd5b505050506040513d6020811015611d7e57600080fd5b50611e829050565b6000546040805163359af54960e21b81526001600160a01b03808c16600483018190529251929363095ea7b39391169163d66bd524916024808301926020929190829003018186803b158015611ddb57600080fd5b505afa158015611def573d6000803e3d6000fd5b505050506040513d6020811015611e0557600080fd5b5051604080516001600160e01b031960e085901b1681526001600160a01b039092166004830152602482018890525160448083019260209291908290030181600087803b158015611e5557600080fd5b505af1158015611e69573d6000803e3d6000fd5b505050506040513d6020811015611e7f57600080fd5b50505b6000805460408051636e53a8d360e11b81526001600160a01b0386811660048301528c811660248301528b81166044830152606482018990529151919092169263dca751a692608480820193602093909283900390910190829087803b158015611eeb57600080fd5b505af1158015611eff573d6000803e3d6000fd5b505050506040513d6020811015611f1557600080fd5b505192508215801590611f285750858310155b611f72576040805162461bcd60e51b81526020600482015260166024820152751a5b9d985b1a59081c9958d95a5d9948185b5bdd5b9d60521b604482015290519081900360640190fd5b6001600160a01b0381161561205e57806001600160a01b0316638723c37786856040518363ffffffff1660e01b81526004018080602001838152602001828103825284818151815260200191508051906020019080838360005b83811015611fe4578181015183820152602001611fcc565b50505050905090810190601f1680156120115780820380516001836020036101000a031916815260200191505b509350505050602060405180830381600087803b15801561203157600080fd5b505af1158015612045573d6000803e3d6000fd5b505050506040513d602081101561205b57600080fd5b50505b604080516001600160a01b03891681526020810185905281517f44e2ab5a6cfe856e15b49f53aec49ff1d9d164735554befaac76ac4dec58af93929181900390910190a15050505050505050565b61271090820204900390565b604080516001600160a01b0385811660248301528416604482015260648082018490528251808303909101815260849091019091526020810180516001600160e01b03166323b872dd60e01b179052612112908590612171565b50505050565b604080516001600160a01b038416602482015260448082018490528251808303909101815260649091019091526020810180516001600160e01b031663a9059cbb60e01b179052610739908490612171565b6014015190565b612183826001600160a01b0316612329565b6121d4576040805162461bcd60e51b815260206004820152601f60248201527f5361666545524332303a2063616c6c20746f206e6f6e2d636f6e747261637400604482015290519081900360640190fd5b60006060836001600160a01b0316836040518082805190602001908083835b602083106122125780518252601f1990920191602091820191016121f3565b6001836020036101000a0380198251168184511680821785525050505050509050019150506000604051808303816000865af19150503d8060008114612274576040519150601f19603f3d011682016040523d82523d6000602084013e612279565b606091505b5091509150816122d0576040805162461bcd60e51b815260206004820181905260248201527f5361666545524332303a206c6f772d6c6576656c2063616c6c206661696c6564604482015290519081900360640190fd5b805115612112578080602001905160208110156122ec57600080fd5b50516121125760405162461bcd60e51b815260040180806020018281038252602a815260200180612387602a913960400191505060405180910390fd5b6000813f7fc5d2460186f7233c927e7db2dcc703c0e500b653ca82273b7bfad8045d85a470811580159061235d5750808214155b94935050505056fe696e73756666696369656e74206261736520746f6b656e20616c6c6f77616e63655361666545524332303a204552433230206f7065726174696f6e20646964206e6f742073756363656564a265627a7a723158203129de11953014b9d1ea7c745e60d4f6de0bc1558b484a846a8c938a5a7cddb564736f6c634300050c0032",
  "source": "pragma solidity ^0.5.12;\n\nimport \"./DEX.sol\";\nimport \"./DEXReserve.sol\";\nimport \"darknode-sol/contracts/Shifter/ShifterRegistry.sol\";\nimport \"darknode-sol/contracts/Shifter/IShifter.sol\";\nimport \"openzeppelin-solidity/contracts/token/ERC20/SafeERC20.sol\";\nimport \"openzeppelin-solidity/contracts/token/ERC20/ERC20.sol\";\n\ncontract DEXAdapter {\n    using SafeERC20 for ERC20;\n\n    DEX public dex;\n    ShifterRegistry public shifterRegistry;\n\n    event LogTransferIn(address src, uint256 amount);\n    event LogTransferOut(address dst, uint256 amount);\n\n    constructor(DEX _dex, ShifterRegistry _shifterRegistry) public {\n        shifterRegistry = _shifterRegistry;\n        dex = _dex;\n    }\n\n    /// @notice Allow anyone to recover funds accidentally sent to the contract.\n    /// To withdraw ETH, the token should be set to `0x0`.\n    function recoverTokens(address _token) external {\n        if (_token == address(0x0)) {\n            msg.sender.transfer(address(this).balance);\n        } else {\n            ERC20(_token).transfer(msg.sender, ERC20(_token).balanceOf(address(this)));\n        }\n    }\n\n    // TODO: Fix \"Stack too deep\" error!\n    uint256 transferredAmt;\n\n    function trade(\n        // Payload\n        /*uint256 _relayerFee,*/ address _src, address _dst, uint256 _minDstAmt, bytes calldata _to,\n        uint256 _refundBN, bytes calldata _refundAddress,\n        // Required\n        uint256 _amount, bytes32 _nHash, bytes calldata _sig\n    ) external {\n        transferredAmt;\n        bytes32 pHash = hashTradePayload(_src, _dst, _minDstAmt, _to, _refundBN, _refundAddress);\n        // Handle refunds if the refund block number has passed\n        if (block.number >= _refundBN) {\n            IShifter shifter = shifterRegistry.getShifterByToken(address(_src));\n            if (shifter != IShifter(0x0)) {\n                transferredAmt = shifter.shiftIn(pHash, _amount, _nHash, _sig);\n                shifter.shiftOut(_refundAddress, transferredAmt);\n            }\n            return;\n        }\n\n        transferredAmt = _transferIn(_src, _amount, _nHash, pHash, _sig);\n        emit LogTransferIn(_src, transferredAmt);\n        _doTrade(_src, _dst, _minDstAmt, _to, transferredAmt);\n    }\n\n    function hashTradePayload(\n        /*uint256 _relayerFee,*/ address _src, address _dst, uint256 _minDstAmt, bytes memory _to,\n        uint256 _refundBN, bytes memory _refundAddress\n    ) public pure returns (bytes32) {\n        return keccak256(abi.encode(_src, _dst, _minDstAmt, _to, _refundBN, _refundAddress));\n    }\n\n    function hashLiquidityPayload(\n        address _liquidityProvider,  uint256 _maxBaseToken, address _token,\n        uint256 _refundBN, bytes memory _refundAddress\n    ) public pure returns (bytes32) {\n        return keccak256(abi.encode(_liquidityProvider, _maxBaseToken, _token, _refundBN, _refundAddress));\n    }\n\n    function addLiquidity(\n        address _liquidityProvider,  uint256 _maxBaseToken, address _token, uint256 _deadline, bytes calldata _refundAddress,\n        uint256 _amount, bytes32 _nHash, bytes calldata _sig\n        ) external returns (uint256) {\n            DEXReserve reserve = dex.reserves(_token);\n            require(reserve != DEXReserve(0x0), \"unsupported token\");\n            bytes32 lpHash = hashLiquidityPayload(_liquidityProvider, _maxBaseToken, _token, _deadline, _refundAddress);\n            if (block.number > _deadline) {\n                uint256 shiftedAmount = shifterRegistry.getShifterByToken(_token).shiftIn(lpHash, _amount, _nHash, _sig);\n                shifterRegistry.getShifterByToken(_token).shiftOut(_refundAddress, shiftedAmount);\n                return 0;\n            }\n            require(ERC20(dex.baseToken()).allowance(_liquidityProvider, address(reserve)) >= _maxBaseToken,\n                \"insufficient base token allowance\");\n            uint256 transferredAmount = _transferIn(_token, _amount, _nHash, lpHash, _sig);\n            ERC20(_token).approve(address(reserve), transferredAmount);\n            return reserve.addLiquidity(_liquidityProvider, _maxBaseToken, transferredAmount, _deadline);\n    }\n\n    function removeLiquidity(address _token, uint256 _liquidity, bytes calldata _tokenAddress) external {\n        DEXReserve reserve = dex.reserves(_token);\n        require(reserve != DEXReserve(0x0), \"unsupported token\");\n        ERC20(reserve).safeTransferFrom(msg.sender, address(this), _liquidity);\n        (uint256 baseTokenAmount, uint256 quoteTokenAmount) = reserve.removeLiquidity(_liquidity);\n        reserve.baseToken().safeTransfer(msg.sender, baseTokenAmount);\n        shifterRegistry.getShifterByToken(address(reserve.token())).shiftOut(_tokenAddress, quoteTokenAmount);\n    }\n\n    function _doTrade(\n        address _src, address _dst, uint256 _minDstAmt, bytes memory _to, uint256 _amount\n    ) internal {\n        uint256 recvAmt;\n        address to;\n        IShifter shifter = shifterRegistry.getShifterByToken(address(_dst));\n\n        if (shifter != IShifter(0x0)) {\n            to = address(this);\n        } else {\n            to = _bytesToAddress(_to);\n        }\n\n        if (_src == dex.baseToken()) {\n            ERC20(_src).approve(address(dex.reserves(_dst)), _amount);\n        } else {\n            ERC20(_src).approve(address(dex.reserves(_src)), _amount);\n        }\n        recvAmt = dex.trade(to, _src, _dst, _amount);\n\n        require(recvAmt > 0 && recvAmt >= _minDstAmt, \"invalid receive amount\");\n        if (shifter != IShifter(0x0)) {\n            shifter.shiftOut(_to, recvAmt);\n        }\n        emit LogTransferOut(_dst, recvAmt);\n    }\n\n    function _transferIn(\n        /*uint256 _relayerFee,*/ address _src, uint256 _amount,\n        bytes32 _nHash, bytes32 _pHash, bytes memory _sig\n    ) internal returns (uint256) {\n        IShifter shifter = shifterRegistry.getShifterByToken(address(_src));\n        if (shifter != IShifter(0x0)) {\n            return shifter.shiftIn(_pHash, _amount, _nHash, _sig);\n        } else {\n            ERC20(_src).safeTransferFrom(msg.sender, address(this), _amount);\n            return _amount;\n        }\n    }\n\n    function _bytesToAddress(bytes memory _addr) internal pure returns (address) {\n        address addr;\n        /* solhint-disable-next-line */ /* solium-disable-next-line */\n        assembly {\n            addr := mload(add(_addr, 20))\n        }\n        return addr;\n    }\n\n    function calculateReceiveAmount(address _src, address _dst, uint256 _sendAmount) public view returns (uint256) {\n        uint256 sendAmount = _sendAmount;\n\n        // Remove shift-in fees\n        IShifter srcShifter = shifterRegistry.getShifterByToken(_dst);\n        if (srcShifter != IShifter(0x0)) {\n            sendAmount = removeFee(_sendAmount, srcShifter.shiftInFee());\n        }\n\n        uint256 receiveAmount = dex.calculateReceiveAmount(_src, _dst, sendAmount);\n\n        // Remove shift-out fees\n        IShifter dstShifter = shifterRegistry.getShifterByToken(_dst);\n        if (dstShifter != IShifter(0x0)) {\n            receiveAmount = removeFee(receiveAmount, dstShifter.shiftOutFee());\n        }\n\n        return receiveAmount;\n    }\n\n    function removeFee(uint256 _amount, uint256 _feeInBips) private view returns (uint256) {\n        return _amount - (_amount * _feeInBips)/10000;\n    }\n}",
  "sourcePath": "dex-demo/ethereum-contracts/contracts/DEXAdapter.sol",
  "compiler": {
    "name": "solc",
    "version": "0.5.12+commit.7709ece9.Emscripten.clang"
  },
  "schemaVersion": "3.0.16",
  "updatedAt": "2019-10-31T03:50:41.143Z",
  "devdoc": {
    "methods": {}
  },
  "userdoc": {
    "methods": {
      "recoverTokens(address)": {
        "notice": "Allow anyone to recover funds accidentally sent to the contract. To withdraw ETH, the token should be set to `0x0`."
      }
    }
  }
}