{
  "contractName": "ShifterRegistry",
  "abi": [
    {
      "anonymous": false,
      "inputs": [
        {
          "indexed": false,
          "internalType": "string",
          "name": "_symbol",
          "type": "string"
        },
        {
          "indexed": true,
          "internalType": "string",
          "name": "_indexedSymbol",
          "type": "string"
        },
        {
          "indexed": true,
          "internalType": "address",
          "name": "_tokenAddress",
          "type": "address"
        },
        {
          "indexed": true,
          "internalType": "address",
          "name": "_shifterAddress",
          "type": "address"
        }
      ],
      "name": "LogShifterDeregistered",
      "type": "event"
    },
    {
      "anonymous": false,
      "inputs": [
        {
          "indexed": false,
          "internalType": "string",
          "name": "_symbol",
          "type": "string"
        },
        {
          "indexed": true,
          "internalType": "string",
          "name": "_indexedSymbol",
          "type": "string"
        },
        {
          "indexed": true,
          "internalType": "address",
          "name": "_tokenAddress",
          "type": "address"
        },
        {
          "indexed": true,
          "internalType": "address",
          "name": "_shifterAddress",
          "type": "address"
        }
      ],
      "name": "LogShifterRegistered",
      "type": "event"
    },
    {
      "anonymous": false,
      "inputs": [
        {
          "indexed": true,
          "internalType": "address",
          "name": "_tokenAddress",
          "type": "address"
        },
        {
          "indexed": true,
          "internalType": "address",
          "name": "_currentShifterAddress",
          "type": "address"
        },
        {
          "indexed": true,
          "internalType": "address",
          "name": "_newShifterAddress",
          "type": "address"
        }
      ],
      "name": "LogShifterUpdated",
      "type": "event"
    },
    {
      "anonymous": false,
      "inputs": [
        {
          "indexed": true,
          "internalType": "address",
          "name": "previousOwner",
          "type": "address"
        },
        {
          "indexed": true,
          "internalType": "address",
          "name": "newOwner",
          "type": "address"
        }
      ],
      "name": "OwnershipTransferred",
      "type": "event"
    },
    {
      "constant": false,
      "inputs": [],
      "name": "claimOwnership",
      "outputs": [],
      "payable": false,
      "stateMutability": "nonpayable",
      "type": "function"
    },
    {
      "constant": true,
      "inputs": [],
      "name": "isOwner",
      "outputs": [
        {
          "internalType": "bool",
          "name": "",
          "type": "bool"
        }
      ],
      "payable": false,
      "stateMutability": "view",
      "type": "function"
    },
    {
      "constant": true,
      "inputs": [],
      "name": "owner",
      "outputs": [
        {
          "internalType": "address",
          "name": "",
          "type": "address"
        }
      ],
      "payable": false,
      "stateMutability": "view",
      "type": "function"
    },
    {
      "constant": false,
      "inputs": [],
      "name": "renounceOwnership",
      "outputs": [],
      "payable": false,
      "stateMutability": "nonpayable",
      "type": "function"
    },
    {
      "constant": false,
      "inputs": [
        {
          "internalType": "address",
          "name": "newOwner",
          "type": "address"
        }
      ],
      "name": "transferOwnership",
      "outputs": [],
      "payable": false,
      "stateMutability": "nonpayable",
      "type": "function"
    },
    {
      "constant": false,
      "inputs": [
        {
          "internalType": "address",
          "name": "_token",
          "type": "address"
        }
      ],
      "name": "recoverTokens",
      "outputs": [],
      "payable": false,
      "stateMutability": "nonpayable",
      "type": "function"
    },
    {
      "constant": false,
      "inputs": [
        {
          "internalType": "address",
          "name": "_tokenAddress",
          "type": "address"
        },
        {
          "internalType": "address",
          "name": "_shifterAddress",
          "type": "address"
        }
      ],
      "name": "setShifter",
      "outputs": [],
      "payable": false,
      "stateMutability": "nonpayable",
      "type": "function"
    },
    {
      "constant": false,
      "inputs": [
        {
          "internalType": "address",
          "name": "_tokenAddress",
          "type": "address"
        },
        {
          "internalType": "address",
          "name": "_newShifterAddress",
          "type": "address"
        }
      ],
      "name": "updateShifter",
      "outputs": [],
      "payable": false,
      "stateMutability": "nonpayable",
      "type": "function"
    },
    {
      "constant": false,
      "inputs": [
        {
          "internalType": "string",
          "name": "_symbol",
          "type": "string"
        }
      ],
      "name": "removeShifter",
      "outputs": [],
      "payable": false,
      "stateMutability": "nonpayable",
      "type": "function"
    },
    {
      "constant": true,
      "inputs": [
        {
          "internalType": "address",
          "name": "_start",
          "type": "address"
        },
        {
          "internalType": "uint256",
          "name": "_count",
          "type": "uint256"
        }
      ],
      "name": "getShifters",
      "outputs": [
        {
          "internalType": "address[]",
          "name": "",
          "type": "address[]"
        }
      ],
      "payable": false,
      "stateMutability": "view",
      "type": "function"
    },
    {
      "constant": true,
      "inputs": [
        {
          "internalType": "address",
          "name": "_start",
          "type": "address"
        },
        {
          "internalType": "uint256",
          "name": "_count",
          "type": "uint256"
        }
      ],
      "name": "getShiftedTokens",
      "outputs": [
        {
          "internalType": "address[]",
          "name": "",
          "type": "address[]"
        }
      ],
      "payable": false,
      "stateMutability": "view",
      "type": "function"
    },
    {
      "constant": true,
      "inputs": [
        {
          "internalType": "address",
          "name": "_tokenAddress",
          "type": "address"
        }
      ],
      "name": "getShifterByToken",
      "outputs": [
        {
          "internalType": "contract IShifter",
          "name": "",
          "type": "address"
        }
      ],
      "payable": false,
      "stateMutability": "view",
      "type": "function"
    },
    {
      "constant": true,
      "inputs": [
        {
          "internalType": "string",
          "name": "_tokenSymbol",
          "type": "string"
        }
      ],
      "name": "getShifterBySymbol",
      "outputs": [
        {
          "internalType": "contract IShifter",
          "name": "",
          "type": "address"
        }
      ],
      "payable": false,
      "stateMutability": "view",
      "type": "function"
    },
    {
      "constant": true,
      "inputs": [
        {
          "internalType": "string",
          "name": "_tokenSymbol",
          "type": "string"
        }
      ],
      "name": "getTokenBySymbol",
      "outputs": [
        {
          "internalType": "address",
          "name": "",
          "type": "address"
        }
      ],
      "payable": false,
      "stateMutability": "view",
      "type": "function"
    }
  ],
  "bytecode": "0x6080604081905260006002819055600180546001600160a01b0319163317908190556001600160a01b0316917f8be0079c531659141344cd1fd0a4f28419497f9722a3daafe3b4186f6b6457e0908290a361153e8061005f6000396000f3fe608060405234801561001057600080fd5b50600436106100ea5760003560e01c8063a47c84bd1161008c578063be1bca1911610066578063be1bca1914610313578063deeb2efe14610341578063efa74f1f1461036d578063f2fde38b146103db576100ea565b8063a47c84bd146101fb578063a904d13d14610277578063ac5b1ba9146102a5576100ea565b8063715018a6116100c8578063715018a6146101615780638da5cb5b146101695780638f32d59b1461017157806392a29e301461018d576100ea565b806316114acd146100ef57806328c4f410146101175780634e71e0c814610159575b600080fd5b6101156004803603602081101561010557600080fd5b50356001600160a01b0316610401565b005b61013d6004803603602081101561012d57600080fd5b50356001600160a01b0316610581565b604080516001600160a01b039092168252519081900360200190f35b61011561059f565b61011561064d565b61013d6106da565b6101796106e9565b604080519115158252519081900360200190f35b61013d600480360360208110156101a357600080fd5b810190602081018135600160201b8111156101bd57600080fd5b8201836020820111156101cf57600080fd5b803590602001918460018302840111600160201b831117156101f057600080fd5b5090925090506106fa565b6102276004803603604081101561021157600080fd5b506001600160a01b03813516906020013561074a565b60408051602080825283518183015283519192839290830191858101910280838360005b8381101561026357818101518382015260200161024b565b505050509050019250505060405180910390f35b6101156004803603604081101561028d57600080fd5b506001600160a01b0381358116916020013516610817565b610115600480360360208110156102bb57600080fd5b810190602081018135600160201b8111156102d557600080fd5b8201836020820111156102e757600080fd5b803590602001918460018302840111600160201b8311171561030857600080fd5b509092509050610c80565b6101156004803603604081101561032957600080fd5b506001600160a01b0381358116916020013516610e5c565b6102276004803603604081101561035757600080fd5b506001600160a01b038135169060200135610f6b565b61013d6004803603602081101561038357600080fd5b810190602081018135600160201b81111561039d57600080fd5b8201836020820111156103af57600080fd5b803590602001918460018302840111600160201b831117156103d057600080fd5b50909250905061102d565b610115600480360360208110156103f157600080fd5b50356001600160a01b0316611067565b6104096106e9565b6104445760405162461bcd60e51b815260040180806020018281038252602281526020018061141e6022913960400191505060405180910390fd5b6001600160a01b038116610485576040513390303180156108fc02916000818181858888f1935050505015801561047f573d6000803e3d6000fd5b5061057e565b604080516370a0823160e01b815230600482015290516001600160a01b0383169163a9059cbb91339184916370a0823191602480820192602092909190829003018186803b1580156104d657600080fd5b505afa1580156104ea573d6000803e3d6000fd5b505050506040513d602081101561050057600080fd5b5051604080516001600160e01b031960e086901b1681526001600160a01b03909316600484015260248301919091525160448083019260209291908290030181600087803b15801561055157600080fd5b505af1158015610565573d6000803e3d6000fd5b505050506040513d602081101561057b57600080fd5b50505b50565b6001600160a01b039081166000908152600560205260409020541690565b6000546001600160a01b031633146105e85760405162461bcd60e51b815260040180806020018281038252602a8152602001806114e0602a913960400191505060405180910390fd5b600080546001546040516001600160a01b039283169392909116917f8be0079c531659141344cd1fd0a4f28419497f9722a3daafe3b4186f6b6457e091a360008054600180546001600160a01b03199081166001600160a01b03841617909155169055565b6106556106e9565b6106905760405162461bcd60e51b815260040180806020018281038252602281526020018061141e6022913960400191505060405180910390fd5b6001546040516000916001600160a01b0316907f8be0079c531659141344cd1fd0a4f28419497f9722a3daafe3b4186f6b6457e0908390a3600180546001600160a01b0319169055565b6001546001600160a01b031690565b6001546001600160a01b0316331490565b60006005600060068585604051808383808284379190910194855250506040805160209481900385019020546001600160a01b039081168652938501959095525050910160002054169392505050565b606060008261075c575060025461075f565b50815b60608160405190808252806020026020018201604052801561078b578160200160208202803883390190505b5090506000856001600160a01b0381166107ac576107a960046110cc565b90505b8382101561080c576001600160a01b0381166107c75761080c565b808383815181106107d457fe5b60200260200101906001600160a01b031690816001600160a01b0316815250506107ff6004826110eb565b90506001820191506107ac565b509095945050505050565b61081f6106e9565b61085a5760405162461bcd60e51b815260040180806020018281038252602281526020018061141e6022913960400191505060405180910390fd5b610865600382611166565b156108a15760405162461bcd60e51b815260040180806020018281038252602b8152602001806114b5602b913960400191505060405180910390fd5b6001600160a01b0382811660009081526005602052604090205416156108f85760405162461bcd60e51b81526004018080602001828103825260298152602001806113f56029913960400191505060405180910390fd5b6060826001600160a01b03166395d89b416040518163ffffffff1660e01b815260040160006040518083038186803b15801561093357600080fd5b505afa158015610947573d6000803e3d6000fd5b505050506040513d6000823e601f3d908101601f19168201604052602081101561097057600080fd5b8101908080516040519392919084600160201b82111561098f57600080fd5b9083019060208201858111156109a457600080fd5b8251600160201b8111828201881017156109bd57600080fd5b82525081516020918201929091019080838360005b838110156109ea5781810151838201526020016109d2565b50505050905090810190601f168015610a175780820380516001836020036101000a031916815260200191505b50604052505050905060006001600160a01b03166006826040518082805190602001908083835b60208310610a5d5780518252601f199092019160209182019101610a3e565b51815160209384036101000a60001901801990921691161790529201948552506040519384900301909220546001600160a01b0316929092149150610ad590505760405162461bcd60e51b815260040180806020018281038252602a815260200180611465602a913960400191505060405180910390fd5b610ae0600383611185565b610aeb600484611185565b826006826040518082805190602001908083835b60208310610b1e5780518252601f199092019160209182019101610aff565b51815160209384036101000a600019018019909216911617905292019485525060408051948590038201852080546001600160a01b03199081166001600160a01b0398891617909155898716600081815260058552929092208054909116968916968717905560028054600101905586519094879450925082918401908083835b60208310610bbe5780518252601f199092019160209182019101610b9f565b51815160209384036101000a60001901801990921691161790526040805192909401829003822081835289518383015289519096507fad1b5a1f09ea4cf872d9274b59cccba2c4fb43f92eaf5a54b705449417adce1e95508994929350839283019185019080838360005b83811015610c41578181015183820152602001610c29565b50505050905090810190601f168015610c6e5780820380516001836020036101000a031916815260200191505b509250505060405180910390a4505050565b610c886106e9565b610cc35760405162461bcd60e51b815260040180806020018281038252602281526020018061141e6022913960400191505060405180910390fd5b6000600683836040518083838082843791909101948552505060405192839003602001909220546001600160a01b03169250505080610d335760405162461bcd60e51b815260040180806020018281038252602681526020018061148f6026913960400191505060405180910390fd5b6001600160a01b0380821660009081526005602052604080822080546001600160a01b03198116909155905192169160069086908690808383808284379190910194855250506040519283900360200190922080546001600160a01b03949094166001600160a01b03199094169390931790925550610db5905060038261119c565b610dc060048361119c565b600280546000190190556040516001600160a01b038083169190841690869086908083838082843760408051939091018390038320602080855284018c905295507f7fa2fe506a0201656c1d87a8927899ad716ebd71b23fdabce40b56ae2205696394508b93508a92915081908101848480828437600083820152604051601f909101601f19169092018290039550909350505050a450505050565b610e646106e9565b610e9f5760405162461bcd60e51b815260040180806020018281038252602281526020018061141e6022913960400191505060405180910390fd5b6001600160a01b038083166000908152600560205260409020541680610ef65760405162461bcd60e51b81526004018080602001828103825260258152602001806114406025913960400191505060405180910390fd5b610f0160038261119c565b610f0c600383611185565b6001600160a01b0383811660008181526005602052604080822080546001600160a01b03191687861690811790915590519093851692917f78ef5fc29fe65855a5352e3954d6839f596542b47b3aeb40b84596358d06f09a91a4505050565b6060600082610f7d5750600254610f80565b50815b606081604051908082528060200260200182016040528015610fac578160200160208202803883390190505b5090506000856001600160a01b038116610fcd57610fca60036110cc565b90505b8382101561080c576001600160a01b038116610fe85761080c565b80838381518110610ff557fe5b60200260200101906001600160a01b031690816001600160a01b0316815250506110206003826110eb565b9050600182019150610fcd565b6000600683836040518083838082843791909101948552505060405192839003602001909220546001600160a01b03169250505092915050565b61106f6106e9565b6110aa5760405162461bcd60e51b815260040180806020018281038252602281526020018061141e6022913960400191505060405180910390fd5b600080546001600160a01b0319166001600160a01b0392909216919091179055565b600080805260209190915260409020600101546001600160a01b031690565b60006110f78383611166565b611142576040805162461bcd60e51b8152602060048201526017602482015276131a5b9ad959131a5cdd0e881b9bdd081a5b881b1a5cdd604a1b604482015290519081900360640190fd5b506001600160a01b0390811660009081526020929092526040909120600101541690565b6001600160a01b03166000908152602091909152604090205460ff1690565b6111988261119284611284565b836112a6565b5050565b6111a68282611166565b6111f1576040805162461bcd60e51b8152602060048201526017602482015276131a5b9ad959131a5cdd0e881b9bdd081a5b881b1a5cdd604a1b604482015290519081900360640190fd5b6001600160a01b03811661120457611198565b6001600160a01b0390811660008181526020939093526040808420805460018083018054610100938490048816808a52868a209093018054919098166001600160a01b031991821681179098559688529387208054610100600160a81b031916919092021790559190935280546001600160a81b03191690558154169055565b60008080526020829052604090205461010090046001600160a01b0316919050565b6112b08382611166565b15611302576040805162461bcd60e51b815260206004820152601b60248201527f4c696e6b65644c6973743a20616c726561647920696e206c6973740000000000604482015290519081900360640190fd5b61130c8383611166565b8061131e57506001600160a01b038216155b611369576040805162461bcd60e51b8152602060048201526017602482015276131a5b9ad959131a5cdd0e881b9bdd081a5b881b1a5cdd604a1b604482015290519081900360640190fd5b6001600160a01b0391821660008181526020949094526040808520600190810180549486168088528388208054610100600160a81b03199081166101009788021782558185018054989099166001600160a01b031998891681179099558354909716821790925595875291862080549094169285029290921790925591909252815460ff191617905556fe5368696674657252656769737472793a20746f6b656e20616c72656164792072656769737465726564436c61696d61626c653a2063616c6c6572206973206e6f7420746865206f776e65725368696674657252656769737472793a20746f6b656e206e6f7420726567697374657265645368696674657252656769737472793a2073796d626f6c20616c726561647920726567697374657265645368696674657252656769737472793a2073796d626f6c206e6f7420726567697374657265645368696674657252656769737472793a207368696674657220616c72656164792072656769737465726564436c61696d61626c653a2063616c6c6572206973206e6f74207468652070656e64696e67206f776e6572a265627a7a72315820e927019ecc8676fb3e392bb91222e381af12d1886cb0b73450b80653048d8ddb64736f6c634300050c0032",
  "source": "pragma solidity ^0.5.12;\n\nimport \"../libraries/Claimable.sol\";\nimport \"./ERC20Shifted.sol\";\nimport \"../libraries/LinkedList.sol\";\nimport \"./IShifter.sol\";\n\n/// @notice ShifterRegistry is a mapping from assets to their associated\n/// ERC20Shifted and Shifter contracts.\ncontract ShifterRegistry is Claimable {\n\n    /// @dev The symbol is included twice because strings have to be hashed\n    /// first in order to be used as a log index/topic.\n    event LogShifterRegistered(string _symbol, string indexed _indexedSymbol, address indexed _tokenAddress, address indexed _shifterAddress);\n    event LogShifterDeregistered(string _symbol, string indexed _indexedSymbol, address indexed _tokenAddress, address indexed _shifterAddress);\n    event LogShifterUpdated(address indexed _tokenAddress, address indexed _currentShifterAddress, address indexed _newShifterAddress);\n\n    /// @notice The number of shifters registered\n    uint256 numShifters = 0;\n\n    /// @notice A list of shifter contracts\n    LinkedList.List private shifterList;\n\n    /// @notice A list of shifted token contracts\n    LinkedList.List private shiftedTokenList;\n\n    /// @notice A map of token addresses to canonical shifter addresses\n    mapping (address=>address) private shifterByToken;\n\n    /// @notice A map of token symbols to canonical shifter addresses\n    mapping (string=>address) private tokenBySymbol;\n\n    /// @notice Allow the owner of the contract to recover funds accidentally\n    /// sent to the contract. To withdraw ETH, the token should be set to `0x0`.\n    function recoverTokens(address _token) external onlyOwner {\n        if (_token == address(0x0)) {\n            msg.sender.transfer(address(this).balance);\n        } else {\n            ERC20(_token).transfer(msg.sender, ERC20(_token).balanceOf(address(this)));\n        }\n    }\n\n    /// @notice Allow the owner to set the shifter address for a given\n    ///         ERC20Shifted token contract.\n    ///\n    /// @param _tokenAddress The address of the ERC20Shifted token contract.\n    /// @param _shifterAddress The address of the Shifter contract.\n    function setShifter(address _tokenAddress, address _shifterAddress) external onlyOwner {\n        // Check that token, shifter and symbol haven't already been registered\n        require(!LinkedList.isInList(shifterList, _shifterAddress), \"ShifterRegistry: shifter already registered\");\n        require(shifterByToken[_tokenAddress] == address(0x0), \"ShifterRegistry: token already registered\");\n        string memory symbol = ERC20Shifted(_tokenAddress).symbol();\n        require(tokenBySymbol[symbol] == address(0x0), \"ShifterRegistry: symbol already registered\");\n\n        // Add to list of shifters\n        LinkedList.append(shifterList, _shifterAddress);\n\n        // Add to list of shifted tokens\n        LinkedList.append(shiftedTokenList, _tokenAddress);\n\n        tokenBySymbol[symbol] = _tokenAddress;\n        shifterByToken[_tokenAddress] = _shifterAddress;\n        numShifters += 1;\n\n        emit LogShifterRegistered(symbol, symbol, _tokenAddress, _shifterAddress);\n    }\n\n    /// @notice Allow the owner to update the shifter address for a given\n    ///         ERC20Shifted token contract.\n    ///\n    /// @param _tokenAddress The address of the ERC20Shifted token contract.\n    /// @param _newShifterAddress The updated address of the Shifter contract.\n    function updateShifter(address _tokenAddress, address _newShifterAddress) external onlyOwner {\n        // Check that token, shifter are registered\n        address currentShifter = shifterByToken[_tokenAddress];\n        require(shifterByToken[_tokenAddress] != address(0x0), \"ShifterRegistry: token not registered\");\n\n        // Remove to list of shifters\n        LinkedList.remove(shifterList, currentShifter);\n\n        // Add to list of shifted tokens\n        LinkedList.append(shifterList, _newShifterAddress);\n\n        shifterByToken[_tokenAddress] = _newShifterAddress;\n\n        emit LogShifterUpdated(_tokenAddress, currentShifter, _newShifterAddress);\n    }\n\n    /// @notice Allows the owner to remove the shifter address for a given\n    ///         ERC20shifter token contract.\n    ///\n    /// @param _symbol The symbol of the token to deregister.\n    function removeShifter(string calldata _symbol) external onlyOwner {\n        // Look up token address\n        address tokenAddress = tokenBySymbol[_symbol];\n        require(tokenAddress != address(0x0), \"ShifterRegistry: symbol not registered\");\n\n        // Look up shifter address\n        address shifterAddress = shifterByToken[tokenAddress];\n\n        // Remove token and shifter\n        shifterByToken[tokenAddress] = address(0x0);\n        tokenBySymbol[_symbol] = address(0x0);\n        LinkedList.remove(shifterList, shifterAddress);\n        LinkedList.remove(shiftedTokenList, tokenAddress);\n        numShifters -= 1;\n\n        emit LogShifterDeregistered(_symbol, _symbol, tokenAddress, shifterAddress);\n    }\n\n    /// @dev To get all the registered shifters use count = 0.\n    function getShifters(address _start, uint256 _count) external view returns (address[] memory) {\n        uint256 count;\n        if (_count == 0) {\n            count = numShifters;\n        } else {\n            count = _count;\n        }\n\n        address[] memory shifters = new address[](count);\n\n        // Begin with the first node in the list\n        uint256 n = 0;\n        address next = _start;\n        if (next == address(0)) {\n            next = LinkedList.begin(shifterList);\n        }\n\n        while (n < count) {\n            if (next == address(0)) {\n                break;\n            }\n            shifters[n] = next;\n            next = LinkedList.next(shifterList, next);\n            n += 1;\n        }\n        return shifters;\n    }\n\n    /// @dev To get all the registered shifted tokens use count = 0.\n    function getShiftedTokens(address _start, uint256 _count) external view returns (address[] memory) {\n        uint256 count;\n        if (_count == 0) {\n            count = numShifters;\n        } else {\n            count = _count;\n        }\n\n        address[] memory shiftedTokens = new address[](count);\n\n        // Begin with the first node in the list\n        uint256 n = 0;\n        address next = _start;\n        if (next == address(0)) {\n            next = LinkedList.begin(shiftedTokenList);\n        }\n\n        while (n < count) {\n            if (next == address(0)) {\n                break;\n            }\n            shiftedTokens[n] = next;\n            next = LinkedList.next(shiftedTokenList, next);\n            n += 1;\n        }\n        return shiftedTokens;\n    }\n\n    /// @notice Returns the Shifter address for the given ERC20Shifted token\n    ///         contract address.\n    ///\n    /// @param _tokenAddress The address of the ERC20Shifted token contract.\n    function getShifterByToken(address _tokenAddress) external view returns (IShifter) {\n        return IShifter(shifterByToken[_tokenAddress]);\n    }\n\n    /// @notice Returns the Shifter address for the given ERC20Shifted token\n    ///         symbol.\n    ///\n    /// @param _tokenSymbol The symbol of the ERC20Shifted token contract.\n    function getShifterBySymbol(string calldata _tokenSymbol) external view returns (IShifter) {\n        return IShifter(shifterByToken[tokenBySymbol[_tokenSymbol]]);\n    }\n\n    /// @notice Returns the ERC20Shifted address for the given token symbol.\n    ///\n    /// @param _tokenSymbol The symbol of the ERC20Shifted token contract to\n    ///        lookup.\n    function getTokenBySymbol(string calldata _tokenSymbol) external view returns (address) {\n        return tokenBySymbol[_tokenSymbol];\n    }\n}",
  "sourcePath": "darknode-sol/contracts/Shifter/ShifterRegistry.sol",
  "compiler": {
    "name": "solc",
    "version": "0.5.12+commit.7709ece9.Emscripten.clang"
  },
  "schemaVersion": "3.0.16",
  "updatedAt": "2019-10-31T03:50:41.085Z",
  "devdoc": {
    "methods": {
      "claimOwnership()": {
        "details": "Allows the pendingOwner address to finalize the transfer."
      },
      "getShiftedTokens(address,uint256)": {
        "details": "To get all the registered shifted tokens use count = 0."
      },
      "getShifterBySymbol(string)": {
        "params": {
          "_tokenSymbol": "The symbol of the ERC20Shifted token contract."
        }
      },
      "getShifterByToken(address)": {
        "params": {
          "_tokenAddress": "The address of the ERC20Shifted token contract."
        }
      },
      "getShifters(address,uint256)": {
        "details": "To get all the registered shifters use count = 0."
      },
      "getTokenBySymbol(string)": {
        "params": {
          "_tokenSymbol": "The symbol of the ERC20Shifted token contract to        lookup."
        }
      },
      "isOwner()": {
        "return": "true if `msg.sender` is the owner of the contract."
      },
      "owner()": {
        "return": "the address of the owner."
      },
      "removeShifter(string)": {
        "params": {
          "_symbol": "The symbol of the token to deregister."
        }
      },
      "renounceOwnership()": {
        "details": "Allows the current owner to relinquish control of the contract. It will not be possible to call the functions with the `onlyOwner` modifier anymore."
      },
      "setShifter(address,address)": {
        "params": {
          "_shifterAddress": "The address of the Shifter contract.",
          "_tokenAddress": "The address of the ERC20Shifted token contract."
        }
      },
      "transferOwnership(address)": {
        "details": "Allows the current owner to set the pendingOwner address.",
        "params": {
          "newOwner": "The address to transfer ownership to."
        }
      },
      "updateShifter(address,address)": {
        "params": {
          "_newShifterAddress": "The updated address of the Shifter contract.",
          "_tokenAddress": "The address of the ERC20Shifted token contract."
        }
      }
    }
  },
  "userdoc": {
    "methods": {
      "getShifterBySymbol(string)": {
        "notice": "Returns the Shifter address for the given ERC20Shifted token         symbol. "
      },
      "getShifterByToken(address)": {
        "notice": "Returns the Shifter address for the given ERC20Shifted token         contract address. "
      },
      "getTokenBySymbol(string)": {
        "notice": "Returns the ERC20Shifted address for the given token symbol. "
      },
      "recoverTokens(address)": {
        "notice": "Allow the owner of the contract to recover funds accidentally sent to the contract. To withdraw ETH, the token should be set to `0x0`."
      },
      "removeShifter(string)": {
        "notice": "Allows the owner to remove the shifter address for a given         ERC20shifter token contract. "
      },
      "renounceOwnership()": {
        "notice": "Renouncing ownership will leave the contract without an owner, thereby removing any functionality that is only available to the owner."
      },
      "setShifter(address,address)": {
        "notice": "Allow the owner to set the shifter address for a given         ERC20Shifted token contract. "
      },
      "updateShifter(address,address)": {
        "notice": "Allow the owner to update the shifter address for a given         ERC20Shifted token contract. "
      }
    },
    "notice": "ShifterRegistry is a mapping from assets to their associated ERC20Shifted and Shifter contracts."
  }
}